{
  "abi": [
    {
      "inputs": [
        {
          "internalType": "address",
          "name": "_tokenAddress",
          "type": "address"
        }
      ],
      "stateMutability": "nonpayable",
      "type": "constructor"
    },
    {
      "anonymous": false,
      "inputs": [
        {
          "indexed": false,
          "internalType": "string",
          "name": "protocolName",
          "type": "string"
        },
        {
          "indexed": false,
          "internalType": "string",
          "name": "protocolDomain",
          "type": "string"
        },
        {
          "indexed": false,
          "internalType": "uint256",
          "name": "coverAdded",
          "type": "uint256"
        },
        {
          "indexed": false,
          "internalType": "address",
          "name": "creatorAddress",
          "type": "address"
        },
        {
          "indexed": false,
          "internalType": "uint256",
          "name": "creationTime",
          "type": "uint256"
        }
      ],
      "name": "AddOnExistingInsure",
      "type": "event"
    },
    {
      "anonymous": false,
      "inputs": [
        {
          "indexed": false,
          "internalType": "string",
          "name": "protocol",
          "type": "string"
        },
        {
          "indexed": false,
          "internalType": "uint256",
          "name": "totalCoverBought",
          "type": "uint256"
        },
        {
          "indexed": false,
          "internalType": "uint256",
          "name": "amountPaid",
          "type": "uint256"
        },
        {
          "indexed": false,
          "internalType": "uint256",
          "name": "totalPeriod",
          "type": "uint256"
        },
        {
          "indexed": false,
          "internalType": "enum insure.RiskLevel",
          "name": "_risklevel",
          "type": "uint8"
        }
      ],
      "name": "CoverBought",
      "type": "event"
    },
    {
      "anonymous": false,
      "inputs": [
        {
          "indexed": false,
          "internalType": "string",
          "name": "protocolName",
          "type": "string"
        },
        {
          "indexed": false,
          "internalType": "string",
          "name": "protocolDomain",
          "type": "string"
        },
        {
          "indexed": false,
          "internalType": "uint256",
          "name": "totalCoverCreated",
          "type": "uint256"
        },
        {
          "indexed": false,
          "internalType": "address",
          "name": "creatorAddress",
          "type": "address"
        },
        {
          "indexed": false,
          "internalType": "enum insure.RiskLevel",
          "name": "_risklevel",
          "type": "uint8"
        },
        {
          "indexed": false,
          "internalType": "uint256",
          "name": "creationTime",
          "type": "uint256"
        },
        {
          "indexed": false,
          "internalType": "uint256",
          "name": "_protocolID",
          "type": "uint256"
        }
      ],
      "name": "NewInsure",
      "type": "event"
    },
    {
      "inputs": [
        {
          "internalType": "uint256",
          "name": "_id",
          "type": "uint256"
        },
        {
          "internalType": "uint256",
          "name": "_coverPeriod",
          "type": "uint256"
        },
        {
          "internalType": "uint256",
          "name": "_coverAmount",
          "type": "uint256"
        }
      ],
      "name": "buyCover",
      "outputs": [],
      "stateMutability": "nonpayable",
      "type": "function"
    },
    {
      "inputs": [
        {
          "internalType": "enum insure.RiskLevel",
          "name": "_riskLevel",
          "type": "uint8"
        },
        {
          "internalType": "uint256",
          "name": "_coverPeriod",
          "type": "uint256"
        },
        {
          "internalType": "uint256",
          "name": "_coverAmount",
          "type": "uint256"
        }
      ],
      "name": "calculateCover",
      "outputs": [
        {
          "internalType": "uint256",
          "name": "cover",
          "type": "uint256"
        }
      ],
      "stateMutability": "pure",
      "type": "function"
    },
    {
      "inputs": [
        {
          "internalType": "string",
          "name": "protocolName",
          "type": "string"
        },
        {
          "internalType": "string",
          "name": "protocolDomain",
          "type": "string"
        },
        {
          "internalType": "string",
          "name": "_description",
          "type": "string"
        },
        {
          "internalType": "uint256",
          "name": "totalCoverAmount",
          "type": "uint256"
        },
        {
          "internalType": "enum insure.RiskLevel",
          "name": "_risklevel",
          "type": "uint8"
        }
      ],
      "name": "createNewInsure",
      "outputs": [],
      "stateMutability": "nonpayable",
      "type": "function"
    },
    {
      "inputs": [
        {
          "internalType": "uint256",
          "name": "_id",
          "type": "uint256"
        },
        {
          "internalType": "uint256",
          "name": "_coverAmount",
          "type": "uint256"
        }
      ],
      "name": "createOnExistinginsure",
      "outputs": [],
      "stateMutability": "nonpayable",
      "type": "function"
    },
    {
      "inputs": [
        {
          "internalType": "uint256",
          "name": "_id",
          "type": "uint256"
        }
      ],
      "name": "getAllUsersOfProtocol",
      "outputs": [
        {
          "internalType": "address[]",
          "name": "",
          "type": "address[]"
        }
      ],
      "stateMutability": "view",
      "type": "function"
    },
    {
      "inputs": [
        {
          "internalType": "uint256",
          "name": "_id",
          "type": "uint256"
        }
      ],
      "name": "getProtocolData",
      "outputs": [
        {
          "internalType": "uint256",
          "name": "",
          "type": "uint256"
        },
        {
          "internalType": "uint256",
          "name": "",
          "type": "uint256"
        },
        {
          "internalType": "uint256",
          "name": "",
          "type": "uint256"
        },
        {
          "internalType": "uint256",
          "name": "",
          "type": "uint256"
        },
        {
          "internalType": "string",
          "name": "",
          "type": "string"
        },
        {
          "internalType": "string",
          "name": "",
          "type": "string"
        },
        {
          "internalType": "string",
          "name": "",
          "type": "string"
        },
        {
          "internalType": "enum insure.RiskLevel",
          "name": "",
          "type": "uint8"
        }
      ],
      "stateMutability": "view",
      "type": "function"
    },
    {
      "inputs": [],
      "name": "id",
      "outputs": [
        {
          "internalType": "uint40",
          "name": "",
          "type": "uint40"
        }
      ],
      "stateMutability": "view",
      "type": "function"
    },
    {
      "inputs": [
        {
          "internalType": "uint256",
          "name": "_idOfClaimRequests",
          "type": "uint256"
        }
      ],
      "name": "riskAssessorGetsClaimBack",
      "outputs": [],
      "stateMutability": "nonpayable",
      "type": "function"
    },
    {
      "inputs": [
        {
          "internalType": "uint256",
          "name": "_id",
          "type": "uint256"
        }
      ],
      "name": "riskassessorWithdrawCover",
      "outputs": [],
      "stateMutability": "nonpayable",
      "type": "function"
    },
    {
      "inputs": [
        {
          "internalType": "uint256",
          "name": "_id",
          "type": "uint256"
        }
      ],
      "name": "riskassessorWithdrawProfit",
      "outputs": [],
      "stateMutability": "nonpayable",
      "type": "function"
    },
    {
      "inputs": [
        {
          "internalType": "address",
          "name": "_governanceAddress",
          "type": "address"
        }
      ],
      "name": "setGovernanceAddress",
      "outputs": [],
      "stateMutability": "nonpayable",
      "type": "function"
    },
    {
      "inputs": [
        {
          "internalType": "address",
          "name": "_tokenAddress",
          "type": "address"
        }
      ],
      "name": "setTokenAddress",
      "outputs": [],
      "stateMutability": "nonpayable",
      "type": "function"
    },
    {
      "inputs": [
        {
          "internalType": "uint256",
          "name": "_idOfClaimRequests",
          "type": "uint256"
        }
      ],
      "name": "userGetClaim",
      "outputs": [],
      "stateMutability": "nonpayable",
      "type": "function"
    },
    {
      "inputs": [
        {
          "internalType": "uint256",
          "name": "_id",
          "type": "uint256"
        },
        {
          "internalType": "string",
          "name": "_description",
          "type": "string"
        }
      ],
      "name": "userRequestCover",
      "outputs": [],
      "stateMutability": "nonpayable",
      "type": "function"
    },
    {
      "inputs": [
        {
          "internalType": "uint256",
          "name": "_id",
          "type": "uint256"
        }
      ],
      "name": "viewProtocolCoverUser",
      "outputs": [
        {
          "components": [
            {
              "internalType": "uint256",
              "name": "totalCoverBought",
              "type": "uint256"
            },
            {
              "internalType": "uint256",
              "name": "covePaidFor",
              "type": "uint256"
            },
            {
              "internalType": "uint256",
              "name": "dateBought",
              "type": "uint256"
            },
            {
              "internalType": "bool",
              "name": "requestedCover",
              "type": "bool"
            }
          ],
          "internalType": "struct insure.Users",
          "name": "",
          "type": "tuple"
        }
      ],
      "stateMutability": "view",
      "type": "function"
    },
    {
      "inputs": [
        {
          "internalType": "uint256",
          "name": "_id",
          "type": "uint256"
        }
      ],
      "name": "viewRiskAssessorData",
      "outputs": [
        {
          "components": [
            {
              "internalType": "uint256",
              "name": "totalCoverProvided",
              "type": "uint256"
            },
            {
              "internalType": "uint256",
              "name": "initialCoverCreationDate",
              "type": "uint256"
            },
            {
              "internalType": "uint256",
              "name": "lastWithdrawal",
              "type": "uint256"
            }
          ],
          "internalType": "struct insure.RiskAsessor",
          "name": "",
          "type": "tuple"
        }
      ],
      "stateMutability": "view",
      "type": "function"
    },
    {
      "inputs": [
        {
          "internalType": "address",
          "name": "_feeAddress",
          "type": "address"
        }
      ],
      "name": "withDrawFee",
      "outputs": [],
      "stateMutability": "nonpayable",
      "type": "function"
    }
  ],
  "bytecode": {
    "object": "0x608060405260008054600164ffffffffff199091168117909155805460ff60a01b1916600160a11b1790556003805460ff19168117905534801561004257600080fd5b50604051611dae380380611dae833981016040819052610061916100a3565b60008054600160281b600160c81b031916336501000000000002179055600180546001600160a01b0319166001600160a01b03929092169190911790556100d3565b6000602082840312156100b557600080fd5b81516001600160a01b03811681146100cc57600080fd5b9392505050565b611ccc806100e26000396000f3fe608060405234801561001057600080fd5b506004361061010b5760003560e01c8063af640d0f116100a2578063cf03d77f11610071578063cf03d77f14610264578063cfc1625414610277578063d8cf6cf91461028a578063e246cb5a1461029d578063ee234a81146102e557600080fd5b8063af640d0f146101e2578063bb670f9214610209578063bfbbc2cc1461022a578063ca1e16221461025157600080fd5b806343a4ad71116100de57806343a4ad71146101745780638dd48be514610187578063a992932a146101bc578063ae2ab9aa146101cf57600080fd5b806308df94e8146101105780630ba04ac3146101255780631721d8351461014e57806326a4e8d214610161575b600080fd5b61012361011e3660046114ad565b6102f8565b005b6101386101333660046114ad565b61035d565b60405161014591906114c6565b60405180910390f35b61012361015c366004611513565b6103cf565b61012361016f366004611535565b6104d5565b610123610182366004611535565b610508565b61019a6101953660046114ad565b61056f565b6040805182518152602080840151908201529181015190820152606001610145565b6101236101ca366004611601565b6105d7565b6101236101dd3660046114ad565b610772565b6000546101f39064ffffffffff1681565b60405164ffffffffff9091168152602001610145565b61021c61021736600461165c565b6108e7565b604051908152602001610145565b61023d6102383660046114ad565b610a3f565b60405161014598979695949392919061170d565b61012361025f3660046114ad565b610c54565b61012361027236600461177e565b610d00565b610123610285366004611535565b610e84565b6101236102983660046114ad565b610ebd565b6102b06102ab3660046114ad565b611066565b604051610145919081518152602080830151908201526040808301519082015260609182015115159181019190915260800190565b6101236102f3366004611821565b6110e8565b60035460405163958610ff60e01b8152600481018390526101009091046001600160a01b03169063958610ff90602401600060405180830381600087803b15801561034257600080fd5b505af1158015610356573d6000803e3d6000fd5b5050505050565b60008181526004602090815260409182902060098101805484518185028101850190955280855260609492938301828280156103c257602002820191906000526020600020905b81546001600160a01b031681526001909101906020018083116103a4575b5050505050915050919050565b60006103da826112e8565b90506001811515146104075760405162461bcd60e51b81526004016103fe9061184d565b60405180910390fd5b60008381526004602052604081206001810180549192859261042a9084906118a7565b925050819055508281600201600082825461044591906118a7565b9091555050336000908152600b820160205260408120805485929061046b9084906118a7565b9091555050336000818152600b830160205260409081902042600190910181905590517f1051e6f724aa6a842902afaf8c5a126e451a819e09252c8217368167e5f4fd44926104c7926004860192600687019289929091611971565b60405180910390a150505050565b6104dd611374565b6104e6816113c5565b600180546001600160a01b0319166001600160a01b0392909216919091179055565b610510611374565b600061051e826002546113db565b90506001811515146105665760405162461bcd60e51b81526020600482015260116024820152702332b2903737ba103bb4ba34323930bbb760791b60448201526064016103fe565b50506000600255565b61059360405180606001604052806000815260200160008152602001600081525090565b506000908152600460209081526040808320338452600b01825291829020825160608101845281548152600182015492810192909252600201549181019190915290565b6000828152600460209081526040808320338452600a810190925290912060020154428110156106545760405162461bcd60e51b815260206004820152602260248201527f596f752063616e277420636c61696d20636f7665722c20706572696f64206f7660448201526132b960f11b60648201526084016103fe565b336000908152600a8301602052604090206003015460ff16156106b95760405162461bcd60e51b815260206004820152601760248201527f596f752063616e2774207265717565737420747769636500000000000000000060448201526064016103fe565b336000818152600a8401602052604090819020546003546005860154925163581187db60e01b815291936001600160a01b0361010090920482169363581187db936107159387938b936004808d019493909116928e91016119bd565b600060405180830381600087803b15801561072f57600080fd5b505af1158015610743573d6000803e3d6000fd5b5050336000908152600a90950160205250506040832060038101805460ff191660011790559290925550505050565b6000818152600460209081526040808320338452600b810190925290912060018101546002909101546107a88262278d006118a7565b4210156107b457600080fd5b804210156107c157600080fd5b60028301546001840154336000908152600b8601602052604081205490826107e98584611a0e565b6107f39190611a25565b9050808760020160008282546108099190611a47565b92505081905550808760010160008282546108249190611a47565b9091555050336000908152600b880160205260408120805483929061084a908490611a47565b9091555050336000908152600b880160205260408120600201805462278d0092906108769084906118a7565b909155506000905061088833836113db565b90506001811515146108dc5760405162461bcd60e51b815260206004820181905260248201527f436f756c646e277420776974686472617720636f7665722070726f766964656460448201526064016103fe565b505050505050505050565b6000808460048111156108fc576108fc6116d5565b036109435761090f61016d6103e8611a0e565b6109198385611a0e565b61092560006019611a5a565b60ff166109329190611a0e565b61093c9190611a25565b9050610a38565b6001846004811115610957576109576116d5565b036109805761096a61016d6103e8611a0e565b6109748385611a0e565b61092560146019611a5a565b6002846004811115610994576109946116d5565b036109bd576109a761016d6103e8611a0e565b6109b18385611a0e565b61092560286019611a5a565b60038460048111156109d1576109d16116d5565b036109fa576109e461016d6103e8611a0e565b6109ee8385611a0e565b610925603c6019611a5a565b610a0861016d6103e8611a0e565b610a128385611a0e565b610a1e60506019611a5a565b60ff16610a2b9190611a0e565b610a359190611a25565b90505b9392505050565b6000806000806060806060600080600460008b8152602001908152602001600020905080600001548160010154826002015483600301548460040185600601866007018760080160009054906101000a900460ff16838054610aa0906118ba565b80601f0160208091040260200160405190810160405280929190818152602001828054610acc906118ba565b8015610b195780601f10610aee57610100808354040283529160200191610b19565b820191906000526020600020905b815481529060010190602001808311610afc57829003601f168201915b50505050509350828054610b2c906118ba565b80601f0160208091040260200160405190810160405280929190818152602001828054610b58906118ba565b8015610ba55780601f10610b7a57610100808354040283529160200191610ba5565b820191906000526020600020905b815481529060010190602001808311610b8857829003601f168201915b50505050509250818054610bb8906118ba565b80601f0160208091040260200160405190810160405280929190818152602001828054610be4906118ba565b8015610c315780601f10610c0657610100808354040283529160200191610c31565b820191906000526020600020905b815481529060010190602001808311610c1457829003601f168201915b505050505091509850985098509850985098509850985050919395975091939597565b60035460405163059584a560e41b81526004810183905260009182916101009091046001600160a01b0316906359584a509060240160408051808303816000875af1158015610ca7573d6000803e3d6000fd5b505050506040513d601f19601f82011682018060405250810190610ccb9190611a73565b60008281526004602052604081206002810180549496509294509284929190610cf59084906118a7565b909155505050505050565b6000610d0b836112e8565b9050600181151514610d2f5760405162461bcd60e51b81526004016103fe9061184d565b6000805464ffffffffff168152600460208190526040909120908101610d558882611ae6565b5060068101610d648782611ae6565b5083816001016000828254610d7991906118a7565b90915550506002810184905560088101805484919060ff19166001836004811115610da657610da66116d5565b02179055506005810180546001600160a01b0319163317905560078101610dcd8682611ae6565b506000805464ffffffffff908116835533808352600b84016020526040808420888155426001909101819055935490517fa945cfc3e3dfdd4ad48a7bb2a7bef81c7ecf449e3cdf1fabc987f825acb0674694610e37948d948d948c9491938c939092911690611ba6565b60405180910390a160008054600191908190610e5b90849064ffffffffff16611c11565b92506101000a81548164ffffffffff021916908364ffffffffff16021790555050505050505050565b610e8c611374565b610e95816113c5565b600380546001600160a01b0390921661010002610100600160a81b0319909216919091179055565b6000818152600460209081526040808320338452600b81019092528220546001820154600383015492939192909182610ef68386611a0e565b610f009190611a25565b600154909150600090606490610f2090600160a01b900460ff1684611a0e565b610f2a9190611a25565b600354909150600090606490610f4490859060ff16611a0e565b610f4e9190611a25565b9050600081610f5d8486611a47565b610f679190611a47565b336000908152600b8a0160205260408120819055600280549293508592909190610f929084906118a7565b9091555060009050610fa433836113db565b9050600181151514610ff85760405162461bcd60e51b815260206004820181905260248201527f436f756c646e277420706572666f726d20746865207472616e73616374696f6e60448201526064016103fe565b600354604051630b3ab7f360e21b8152600481018590526101009091046001600160a01b031690632ceadfcc90602401600060405180830381600087803b15801561104257600080fd5b505af1158015611056573d6000803e3d6000fd5b5050505050505050505050505050565b61109360405180608001604052806000815260200160008152602001600081526020016000151581525090565b506000908152600460209081526040808320338452600a0182529182902082516080810184528154815260018201549281019290925260028101549282019290925260039091015460ff161515606082015290565b60008381526004602052604081206008810154909160ff9091169061110e8286866108e7565b9050600061111b826112e8565b905060018115151461113f5760405162461bcd60e51b81526004016103fe9061184d565b84846002015410156111935760405162461bcd60e51b815260206004820152601d60248201527f4e6f7420656e6f75676820636f766572206c65667420666f7220796f7500000060448201526064016103fe565b336000908152600a85016020526040812080548792906111b49084906118a7565b92505081905550848460020160008282546111cf9190611a47565b909155506111e290508662015180611a0e565b6111ec90426118a7565b336000908152600a86016020526040812060020180549091906112109084906118a7565b9091555050336000908152600a85016020526040812060010180548492906112399084906118a7565b925050819055508184600301600082825461125491906118a7565b9091555050336000818152600a860160209081526040808320600301805460ff19169055600988018054600181018255908452919092200180546001600160a01b031916909217909155517fb73a72b6f7b7c4f27bfbaff24380d4edd92287d3503a1266299ed965e47d08d0906112d7906004870190889086908b908990611c36565b60405180910390a150505050505050565b60006112f38261145d565b6001546040516323b872dd60e01b8152336004820152306024820152604481018490526001600160a01b03909116906323b872dd906064016020604051808303816000875af115801561134a573d6000803e3d6000fd5b505050506040513d601f19601f8201168201806040525081019061136e9190611c74565b92915050565b6000546501000000000090046001600160a01b031633146113c35760405162461bcd60e51b81526020600482015260096024820152682737ba1030b236b4b760b91b60448201526064016103fe565b565b6001600160a01b0381166113d857600080fd5b50565b60006113e68261145d565b60015460405163a9059cbb60e01b81526001600160a01b038581166004830152602482018590529091169063a9059cbb906044016020604051808303816000875af1158015611439573d6000803e3d6000fd5b505050506040513d601f19601f82011682018060405250810190610a389190611c74565b600081116113d85760405162461bcd60e51b815260206004820181905260248201527f416d6f756e74206d7573742062652067726561746572207468616e207a65726f60448201526064016103fe565b6000602082840312156114bf57600080fd5b5035919050565b6020808252825182820181905260009190848201906040850190845b818110156115075783516001600160a01b0316835292840192918401916001016114e2565b50909695505050505050565b6000806040838503121561152657600080fd5b50508035926020909101359150565b60006020828403121561154757600080fd5b81356001600160a01b0381168114610a3857600080fd5b634e487b7160e01b600052604160045260246000fd5b600082601f83011261158557600080fd5b813567ffffffffffffffff808211156115a0576115a061155e565b604051601f8301601f19908116603f011681019082821181831017156115c8576115c861155e565b816040528381528660208588010111156115e157600080fd5b836020870160208301376000602085830101528094505050505092915050565b6000806040838503121561161457600080fd5b82359150602083013567ffffffffffffffff81111561163257600080fd5b61163e85828601611574565b9150509250929050565b80356005811061165757600080fd5b919050565b60008060006060848603121561167157600080fd5b61167a84611648565b95602085013595506040909401359392505050565b6000815180845260005b818110156116b557602081850181015186830182015201611699565b506000602082860101526020601f19601f83011685010191505092915050565b634e487b7160e01b600052602160045260246000fd5b6005811061170957634e487b7160e01b600052602160045260246000fd5b9052565b60006101008a83528960208401528860408401528760608401528060808401526117398184018861168f565b905082810360a084015261174d818761168f565b905082810360c0840152611761818661168f565b91505061177160e08301846116eb565b9998505050505050505050565b600080600080600060a0868803121561179657600080fd5b853567ffffffffffffffff808211156117ae57600080fd5b6117ba89838a01611574565b965060208801359150808211156117d057600080fd5b6117dc89838a01611574565b955060408801359150808211156117f257600080fd5b506117ff88828901611574565b9350506060860135915061181560808701611648565b90509295509295909350565b60008060006060848603121561183657600080fd5b505081359360208301359350604090920135919050565b60208082526024908201527f4465706f736974206661696c656420496e737572616e6365206e6f7420637265604082015263185d195960e21b606082015260800190565b634e487b7160e01b600052601160045260246000fd5b8082018082111561136e5761136e611891565b600181811c908216806118ce57607f821691505b6020821081036118ee57634e487b7160e01b600052602260045260246000fd5b50919050565b60008154611901816118ba565b80855260206001838116801561191e576001811461193857611966565b60ff1985168884015283151560051b880183019550611966565b866000528260002060005b8581101561195e5781548a8201860152908301908401611943565b890184019650505b505050505092915050565b60a08152600061198460a08301886118f4565b828103602084015261199681886118f4565b604084019690965250506001600160a01b0392909216606083015260809091015292915050565b86815260c0602082015260006119d660c083018861168f565b82810360408401526119e881886118f4565b6001600160a01b0396871660608501529490951660808301525060a00152949350505050565b808202811582820484141761136e5761136e611891565b600082611a4257634e487b7160e01b600052601260045260246000fd5b500490565b8181038181111561136e5761136e611891565b60ff818116838216019081111561136e5761136e611891565b60008060408385031215611a8657600080fd5b505080516020909101519092909150565b601f821115611ae157600081815260208120601f850160051c81016020861015611abe5750805b601f850160051c820191505b81811015611add57828155600101611aca565b5050505b505050565b815167ffffffffffffffff811115611b0057611b0061155e565b611b1481611b0e84546118ba565b84611a97565b602080601f831160018114611b495760008415611b315750858301515b600019600386901b1c1916600185901b178555611add565b600085815260208120601f198616915b82811015611b7857888601518255948401946001909101908401611b59565b5085821015611b965787850151600019600388901b60f8161c191681555b5050505050600190811b01905550565b60e081526000611bb960e083018a61168f565b8281036020840152611bcb818a61168f565b604084018990526001600160a01b03881660608501529150611bf2905060808301866116eb565b8360a083015264ffffffffff831660c083015298975050505050505050565b64ffffffffff818116838216019080821115611c2f57611c2f611891565b5092915050565b60a081526000611c4960a08301886118f4565b9050856020830152846040830152836060830152611c6a60808301846116eb565b9695505050505050565b600060208284031215611c8657600080fd5b81518015158114610a3857600080fdfea26469706673582212205e115e77a5a30a98ba5a8f0cb0937b8771bf9bc74a6cbf9128663229e7eba5ca64736f6c63430008110033",
    "linkReferences": {}
  },
  "methodIdentifiers": {
    "buyCover(uint256,uint256,uint256)": "ee234a81",
    "calculateCover(uint8,uint256,uint256)": "bb670f92",
    "createNewInsure(string,string,string,uint256,uint8)": "cf03d77f",
    "createOnExistinginsure(uint256,uint256)": "1721d835",
    "getAllUsersOfProtocol(uint256)": "0ba04ac3",
    "getProtocolData(uint256)": "bfbbc2cc",
    "id()": "af640d0f",
    "riskAssessorGetsClaimBack(uint256)": "ca1e1622",
    "riskassessorWithdrawCover(uint256)": "ae2ab9aa",
    "riskassessorWithdrawProfit(uint256)": "d8cf6cf9",
    "setGovernanceAddress(address)": "cfc16254",
    "setTokenAddress(address)": "26a4e8d2",
    "userGetClaim(uint256)": "08df94e8",
    "userRequestCover(uint256,string)": "a992932a",
    "viewProtocolCoverUser(uint256)": "e246cb5a",
    "viewRiskAssessorData(uint256)": "8dd48be5",
    "withDrawFee(address)": "43a4ad71"
  },
  "id": 1
}