{
  "abi": [
    {
      "inputs": [
        {
          "internalType": "address",
          "name": "_tokenAddress",
          "type": "address"
        }
      ],
      "stateMutability": "nonpayable",
      "type": "constructor"
    },
    {
      "anonymous": false,
      "inputs": [
        {
          "indexed": false,
          "internalType": "string",
          "name": "protocolName",
          "type": "string"
        },
        {
          "indexed": false,
          "internalType": "string",
          "name": "protocolDomain",
          "type": "string"
        },
        {
          "indexed": false,
          "internalType": "uint256",
          "name": "coverAdded",
          "type": "uint256"
        },
        {
          "indexed": false,
          "internalType": "address",
          "name": "creatorAddress",
          "type": "address"
        },
        {
          "indexed": false,
          "internalType": "uint256",
          "name": "creationTime",
          "type": "uint256"
        }
      ],
      "name": "AddOnExistingInsure",
      "type": "event"
    },
    {
      "anonymous": false,
      "inputs": [
        {
          "indexed": false,
          "internalType": "string",
          "name": "protocol",
          "type": "string"
        },
        {
          "indexed": false,
          "internalType": "uint256",
          "name": "totalCoverBought",
          "type": "uint256"
        },
        {
          "indexed": false,
          "internalType": "uint256",
          "name": "amountPaid",
          "type": "uint256"
        },
        {
          "indexed": false,
          "internalType": "uint256",
          "name": "totalPeriod",
          "type": "uint256"
        },
        {
          "indexed": false,
          "internalType": "enum insure.RiskLevel",
          "name": "_risklevel",
          "type": "uint8"
        }
      ],
      "name": "CoverBought",
      "type": "event"
    },
    {
      "anonymous": false,
      "inputs": [
        {
          "indexed": false,
          "internalType": "string",
          "name": "protocolName",
          "type": "string"
        },
        {
          "indexed": false,
          "internalType": "string",
          "name": "protocolDomain",
          "type": "string"
        },
        {
          "indexed": false,
          "internalType": "uint256",
          "name": "totalCoverCreated",
          "type": "uint256"
        },
        {
          "indexed": false,
          "internalType": "address",
          "name": "creatorAddress",
          "type": "address"
        },
        {
          "indexed": false,
          "internalType": "enum insure.RiskLevel",
          "name": "_risklevel",
          "type": "uint8"
        },
        {
          "indexed": false,
          "internalType": "uint256",
          "name": "creationTime",
          "type": "uint256"
        },
        {
          "indexed": false,
          "internalType": "uint256",
          "name": "_protocolID",
          "type": "uint256"
        }
      ],
      "name": "NewInsure",
      "type": "event"
    },
    {
      "inputs": [
        {
          "internalType": "uint256",
          "name": "_id",
          "type": "uint256"
        },
        {
          "internalType": "uint256",
          "name": "_coverPeriod",
          "type": "uint256"
        },
        {
          "internalType": "uint256",
          "name": "_coverAmount",
          "type": "uint256"
        }
      ],
      "name": "buyCover",
      "outputs": [],
      "stateMutability": "nonpayable",
      "type": "function"
    },
    {
      "inputs": [
        {
          "internalType": "string",
          "name": "protocolName",
          "type": "string"
        },
        {
          "internalType": "string",
          "name": "protocolDomain",
          "type": "string"
        },
        {
          "internalType": "string",
          "name": "_description",
          "type": "string"
        },
        {
          "internalType": "uint256",
          "name": "totalCoverAmount",
          "type": "uint256"
        },
        {
          "internalType": "enum insure.RiskLevel",
          "name": "_risklevel",
          "type": "uint8"
        }
      ],
      "name": "createNewInsure",
      "outputs": [],
      "stateMutability": "nonpayable",
      "type": "function"
    },
    {
      "inputs": [
        {
          "internalType": "uint256",
          "name": "_id",
          "type": "uint256"
        },
        {
          "internalType": "uint256",
          "name": "_coverAmount",
          "type": "uint256"
        }
      ],
      "name": "createOnExistinginsure",
      "outputs": [],
      "stateMutability": "nonpayable",
      "type": "function"
    },
    {
      "inputs": [
        {
          "internalType": "uint256",
          "name": "_id",
          "type": "uint256"
        }
      ],
      "name": "getAllUsersOfProtocol",
      "outputs": [
        {
          "internalType": "address[]",
          "name": "",
          "type": "address[]"
        }
      ],
      "stateMutability": "view",
      "type": "function"
    },
    {
      "inputs": [
        {
          "internalType": "uint256",
          "name": "_id",
          "type": "uint256"
        }
      ],
      "name": "getProtocolData",
      "outputs": [
        {
          "internalType": "uint256",
          "name": "",
          "type": "uint256"
        },
        {
          "internalType": "uint256",
          "name": "",
          "type": "uint256"
        },
        {
          "internalType": "uint256",
          "name": "",
          "type": "uint256"
        },
        {
          "internalType": "uint256",
          "name": "",
          "type": "uint256"
        },
        {
          "internalType": "string",
          "name": "",
          "type": "string"
        },
        {
          "internalType": "string",
          "name": "",
          "type": "string"
        },
        {
          "internalType": "string",
          "name": "",
          "type": "string"
        },
        {
          "internalType": "enum insure.RiskLevel",
          "name": "",
          "type": "uint8"
        }
      ],
      "stateMutability": "view",
      "type": "function"
    },
    {
      "inputs": [],
      "name": "id",
      "outputs": [
        {
          "internalType": "uint40",
          "name": "",
          "type": "uint40"
        }
      ],
      "stateMutability": "view",
      "type": "function"
    },
    {
      "inputs": [
        {
          "internalType": "uint256",
          "name": "_idOfClaimRequests",
          "type": "uint256"
        }
      ],
      "name": "riskAssessorGetsClaimBack",
      "outputs": [],
      "stateMutability": "nonpayable",
      "type": "function"
    },
    {
      "inputs": [
        {
          "internalType": "uint256",
          "name": "_id",
          "type": "uint256"
        }
      ],
      "name": "riskassessorWithdrawCover",
      "outputs": [],
      "stateMutability": "nonpayable",
      "type": "function"
    },
    {
      "inputs": [
        {
          "internalType": "uint256",
          "name": "_id",
          "type": "uint256"
        }
      ],
      "name": "riskassessorWithdrawProfit",
      "outputs": [],
      "stateMutability": "nonpayable",
      "type": "function"
    },
    {
      "inputs": [
        {
          "internalType": "address",
          "name": "_governanceAddress",
          "type": "address"
        }
      ],
      "name": "setGovernanceAddress",
      "outputs": [],
      "stateMutability": "nonpayable",
      "type": "function"
    },
    {
      "inputs": [
        {
          "internalType": "address",
          "name": "_tokenAddress",
          "type": "address"
        }
      ],
      "name": "setTokenAddress",
      "outputs": [],
      "stateMutability": "nonpayable",
      "type": "function"
    },
    {
      "inputs": [
        {
          "internalType": "uint256",
          "name": "_idOfClaimRequests",
          "type": "uint256"
        }
      ],
      "name": "userGetClaim",
      "outputs": [],
      "stateMutability": "nonpayable",
      "type": "function"
    },
    {
      "inputs": [
        {
          "internalType": "uint256",
          "name": "_id",
          "type": "uint256"
        },
        {
          "internalType": "string",
          "name": "_description",
          "type": "string"
        }
      ],
      "name": "userRequestCover",
      "outputs": [],
      "stateMutability": "nonpayable",
      "type": "function"
    },
    {
      "inputs": [
        {
          "internalType": "uint256",
          "name": "_id",
          "type": "uint256"
        }
      ],
      "name": "viewProtocolCoverUser",
      "outputs": [
        {
          "components": [
            {
              "internalType": "uint256",
              "name": "totalCoverBought",
              "type": "uint256"
            },
            {
              "internalType": "uint256",
              "name": "covePaidFor",
              "type": "uint256"
            },
            {
              "internalType": "uint256",
              "name": "dateBought",
              "type": "uint256"
            },
            {
              "internalType": "bool",
              "name": "requestedCover",
              "type": "bool"
            }
          ],
          "internalType": "struct insure.Users",
          "name": "",
          "type": "tuple"
        }
      ],
      "stateMutability": "view",
      "type": "function"
    },
    {
      "inputs": [
        {
          "internalType": "uint256",
          "name": "_id",
          "type": "uint256"
        }
      ],
      "name": "viewRiskAssessorData",
      "outputs": [
        {
          "components": [
            {
              "internalType": "uint256",
              "name": "totalCoverProvided",
              "type": "uint256"
            },
            {
              "internalType": "uint256",
              "name": "initialCoverCreationDate",
              "type": "uint256"
            },
            {
              "internalType": "uint256",
              "name": "lastWithdrawal",
              "type": "uint256"
            }
          ],
          "internalType": "struct insure.RiskAsessor",
          "name": "",
          "type": "tuple"
        }
      ],
      "stateMutability": "view",
      "type": "function"
    },
    {
      "inputs": [
        {
          "internalType": "address",
          "name": "_feeAddress",
          "type": "address"
        }
      ],
      "name": "withDrawFee",
      "outputs": [],
      "stateMutability": "nonpayable",
      "type": "function"
    }
  ],
  "bytecode": {
    "object": "0x608060405260008054600164ffffffffff199091168117909155805460ff60a01b1916600160a11b1790556003805460ff19168117905534801561004257600080fd5b50604051611d26380380611d26833981016040819052610061916100a3565b60008054600160281b600160c81b031916336501000000000002179055600180546001600160a01b0319166001600160a01b03929092169190911790556100d3565b6000602082840312156100b557600080fd5b81516001600160a01b03811681146100cc57600080fd5b9392505050565b611c44806100e26000396000f3fe608060405234801561001057600080fd5b50600436106101005760003560e01c8063af640d0f11610097578063cfc1625411610066578063cfc162541461024b578063d8cf6cf91461025e578063e246cb5a14610271578063ee234a81146102b957600080fd5b8063af640d0f146101d7578063bfbbc2cc146101fe578063ca1e162214610225578063cf03d77f1461023857600080fd5b806343a4ad71116100d357806343a4ad71146101695780638dd48be51461017c578063a992932a146101b1578063ae2ab9aa146101c457600080fd5b806308df94e8146101055780630ba04ac31461011a5780631721d8351461014357806326a4e8d214610156575b600080fd5b610118610113366004611464565b6102cc565b005b61012d610128366004611464565b610331565b60405161013a919061147d565b60405180910390f35b6101186101513660046114ca565b6103a3565b6101186101643660046114ec565b61048e565b6101186101773660046114ec565b6104c1565b61018f61018a366004611464565b610528565b604080518251815260208084015190820152918101519082015260600161013a565b6101186101bf3660046115b8565b610590565b6101186101d2366004611464565b61072b565b6000546101e89064ffffffffff1681565b60405164ffffffffff909116815260200161013a565b61021161020c366004611464565b6108a0565b60405161013a98979695949392919061167d565b610118610233366004611464565b610ab5565b6101186102463660046116ee565b610b61565b6101186102593660046114ec565b610cde565b61011861026c366004611464565b610d17565b61028461027f366004611464565b610ec0565b60405161013a919081518152602080830151908201526040808301519082015260609182015115159181019190915260800190565b6101186102c7366004611799565b610f42565b60035460405163958610ff60e01b8152600481018390526101009091046001600160a01b03169063958610ff90602401600060405180830381600087803b15801561031657600080fd5b505af115801561032a573d6000803e3d6000fd5b5050505050565b600081815260046020908152604091829020600981018054845181850281018501909552808552606094929383018282801561039657602002820191906000526020600020905b81546001600160a01b03168152600190910190602001808311610378575b5050505050915050919050565b60006103ae82611142565b90506001811515146103db5760405162461bcd60e51b81526004016103d2906117c5565b60405180910390fd5b6000838152600460205260408120600181018054919285926103fe90849061181f565b9091555050336000908152600b820160205260408120805485929061042490849061181f565b9091555050336000818152600b830160205260409081902042600190910181905590517f1051e6f724aa6a842902afaf8c5a126e451a819e09252c8217368167e5f4fd44926104809260048601926006870192899290916118e9565b60405180910390a150505050565b6104966111ce565b61049f8161121f565b600180546001600160a01b0319166001600160a01b0392909216919091179055565b6104c96111ce565b60006104d782600254611235565b905060018115151461051f5760405162461bcd60e51b81526020600482015260116024820152702332b2903737ba103bb4ba34323930bbb760791b60448201526064016103d2565b50506000600255565b61054c60405180606001604052806000815260200160008152602001600081525090565b506000908152600460209081526040808320338452600b01825291829020825160608101845281548152600182015492810192909252600201549181019190915290565b6000828152600460209081526040808320338452600a8101909252909120600201544281101561060d5760405162461bcd60e51b815260206004820152602260248201527f596f752063616e277420636c61696d20636f7665722c20706572696f64206f7660448201526132b960f11b60648201526084016103d2565b336000908152600a8301602052604090206003015460ff16156106725760405162461bcd60e51b815260206004820152601760248201527f596f752063616e2774207265717565737420747769636500000000000000000060448201526064016103d2565b336000818152600a8401602052604090819020546003546005860154925163581187db60e01b815291936001600160a01b0361010090920482169363581187db936106ce9387938b936004808d019493909116928e9101611935565b600060405180830381600087803b1580156106e857600080fd5b505af11580156106fc573d6000803e3d6000fd5b5050336000908152600a90950160205250506040832060038101805460ff191660011790559290925550505050565b6000818152600460209081526040808320338452600b810190925290912060018101546002909101546107618262278d0061181f565b42101561076d57600080fd5b8042101561077a57600080fd5b60028301546001840154336000908152600b8601602052604081205490826107a28584611986565b6107ac919061199d565b9050808760020160008282546107c291906119bf565b92505081905550808760010160008282546107dd91906119bf565b9091555050336000908152600b88016020526040812080548392906108039084906119bf565b9091555050336000908152600b880160205260408120600201805462278d00929061082f90849061181f565b90915550600090506108413383611235565b90506001811515146108955760405162461bcd60e51b815260206004820181905260248201527f436f756c646e277420776974686472617720636f7665722070726f766964656460448201526064016103d2565b505050505050505050565b6000806000806060806060600080600460008b8152602001908152602001600020905080600001548160010154826002015483600301548460040185600601866007018760080160009054906101000a900460ff1683805461090190611832565b80601f016020809104026020016040519081016040528092919081815260200182805461092d90611832565b801561097a5780601f1061094f5761010080835404028352916020019161097a565b820191906000526020600020905b81548152906001019060200180831161095d57829003601f168201915b5050505050935082805461098d90611832565b80601f01602080910402602001604051908101604052809291908181526020018280546109b990611832565b8015610a065780601f106109db57610100808354040283529160200191610a06565b820191906000526020600020905b8154815290600101906020018083116109e957829003601f168201915b50505050509250818054610a1990611832565b80601f0160208091040260200160405190810160405280929190818152602001828054610a4590611832565b8015610a925780601f10610a6757610100808354040283529160200191610a92565b820191906000526020600020905b815481529060010190602001808311610a7557829003601f168201915b505050505091509850985098509850985098509850985050919395975091939597565b60035460405163059584a560e41b81526004810183905260009182916101009091046001600160a01b0316906359584a509060240160408051808303816000875af1158015610b08573d6000803e3d6000fd5b505050506040513d601f19601f82011682018060405250810190610b2c91906119d2565b60008281526004602052604081206002810180549496509294509284929190610b5690849061181f565b909155505050505050565b6000610b6c83611142565b9050600181151514610b905760405162461bcd60e51b81526004016103d2906117c5565b6000805464ffffffffff168152600460208190526040909120908101610bb68882611a45565b5060068101610bc58782611a45565b5083816001016000828254610bda919061181f565b909155505060088101805484919060ff19166001836004811115610c0057610c00611645565b02179055506005810180546001600160a01b0319163317905560078101610c278682611a45565b506000805464ffffffffff908116835533808352600b84016020526040808420888155426001909101819055935490517fa945cfc3e3dfdd4ad48a7bb2a7bef81c7ecf449e3cdf1fabc987f825acb0674694610c91948d948d948c9491938c939092911690611b05565b60405180910390a160008054600191908190610cb590849064ffffffffff16611b70565b92506101000a81548164ffffffffff021916908364ffffffffff16021790555050505050505050565b610ce66111ce565b610cef8161121f565b600380546001600160a01b0390921661010002610100600160a81b0319909216919091179055565b6000818152600460209081526040808320338452600b81019092528220546001820154600383015492939192909182610d508386611986565b610d5a919061199d565b600154909150600090606490610d7a90600160a01b900460ff1684611986565b610d84919061199d565b600354909150600090606490610d9e90859060ff16611986565b610da8919061199d565b9050600081610db784866119bf565b610dc191906119bf565b336000908152600b8a0160205260408120819055600280549293508592909190610dec90849061181f565b9091555060009050610dfe3383611235565b9050600181151514610e525760405162461bcd60e51b815260206004820181905260248201527f436f756c646e277420706572666f726d20746865207472616e73616374696f6e60448201526064016103d2565b600354604051630b3ab7f360e21b8152600481018590526101009091046001600160a01b031690632ceadfcc90602401600060405180830381600087803b158015610e9c57600080fd5b505af1158015610eb0573d6000803e3d6000fd5b5050505050505050505050505050565b610eed60405180608001604052806000815260200160008152602001600081526020016000151581525090565b506000908152600460209081526040808320338452600a0182529182902082516080810184528154815260018201549281019290925260028101549282019290925260039091015460ff161515606082015290565b60008381526004602052604081206008810154909160ff90911690610f688286866112be565b90506000610f7582611142565b9050600181151514610f995760405162461bcd60e51b81526004016103d2906117c5565b8484600201541015610fed5760405162461bcd60e51b815260206004820152601d60248201527f4e6f7420656e6f75676820636f766572206c65667420666f7220796f7500000060448201526064016103d2565b336000908152600a850160205260408120805487929061100e90849061181f565b925050819055508484600201600082825461102991906119bf565b9091555061103c90508662015180611986565b611046904261181f565b336000908152600a860160205260408120600201805490919061106a90849061181f565b9091555050336000908152600a850160205260408120600101805484929061109390849061181f565b92505081905550818460030160008282546110ae919061181f565b9091555050336000818152600a860160209081526040808320600301805460ff19169055600988018054600181018255908452919092200180546001600160a01b031916909217909155517fb73a72b6f7b7c4f27bfbaff24380d4edd92287d3503a1266299ed965e47d08d090611131906004870190889086908b908990611b95565b60405180910390a150505050505050565b600061114d82611414565b6001546040516323b872dd60e01b8152336004820152306024820152604481018490526001600160a01b03909116906323b872dd906064016020604051808303816000875af11580156111a4573d6000803e3d6000fd5b505050506040513d601f19601f820116820180604052508101906111c89190611bd3565b92915050565b6000546501000000000090046001600160a01b0316331461121d5760405162461bcd60e51b81526020600482015260096024820152682737ba1030b236b4b760b91b60448201526064016103d2565b565b6001600160a01b03811661123257600080fd5b50565b600061124082611414565b60015460405163a9059cbb60e01b81526001600160a01b038581166004830152602482018590529091169063a9059cbb906044016020604051808303816000875af1158015611293573d6000803e3d6000fd5b505050506040513d601f19601f820116820180604052508101906112b79190611bd3565b9392505050565b6000808460048111156112d3576112d3611645565b0361131a576112e661016d6103e8611986565b6112f08385611986565b6112fc60006019611bf5565b60ff166113099190611986565b611313919061199d565b90506112b7565b600184600481111561132e5761132e611645565b036113575761134161016d6103e8611986565b61134b8385611986565b6112fc60146019611bf5565b600284600481111561136b5761136b611645565b036113945761137e61016d6103e8611986565b6113888385611986565b6112fc60286019611bf5565b60038460048111156113a8576113a8611645565b036113d1576113bb61016d6103e8611986565b6113c58385611986565b6112fc603c6019611bf5565b6113df61016d6103e8611986565b6113e98385611986565b6113f560506019611bf5565b60ff166114029190611986565b61140c919061199d565b949350505050565b600081116112325760405162461bcd60e51b815260206004820181905260248201527f416d6f756e74206d7573742062652067726561746572207468616e207a65726f60448201526064016103d2565b60006020828403121561147657600080fd5b5035919050565b6020808252825182820181905260009190848201906040850190845b818110156114be5783516001600160a01b031683529284019291840191600101611499565b50909695505050505050565b600080604083850312156114dd57600080fd5b50508035926020909101359150565b6000602082840312156114fe57600080fd5b81356001600160a01b03811681146112b757600080fd5b634e487b7160e01b600052604160045260246000fd5b600082601f83011261153c57600080fd5b813567ffffffffffffffff8082111561155757611557611515565b604051601f8301601f19908116603f0116810190828211818310171561157f5761157f611515565b8160405283815286602085880101111561159857600080fd5b836020870160208301376000602085830101528094505050505092915050565b600080604083850312156115cb57600080fd5b82359150602083013567ffffffffffffffff8111156115e957600080fd5b6115f58582860161152b565b9150509250929050565b6000815180845260005b8181101561162557602081850181015186830182015201611609565b506000602082860101526020601f19601f83011685010191505092915050565b634e487b7160e01b600052602160045260246000fd5b6005811061167957634e487b7160e01b600052602160045260246000fd5b9052565b60006101008a83528960208401528860408401528760608401528060808401526116a9818401886115ff565b905082810360a08401526116bd81876115ff565b905082810360c08401526116d181866115ff565b9150506116e160e083018461165b565b9998505050505050505050565b600080600080600060a0868803121561170657600080fd5b853567ffffffffffffffff8082111561171e57600080fd5b61172a89838a0161152b565b9650602088013591508082111561174057600080fd5b61174c89838a0161152b565b9550604088013591508082111561176257600080fd5b5061176f8882890161152b565b9350506060860135915060808601356005811061178b57600080fd5b809150509295509295909350565b6000806000606084860312156117ae57600080fd5b505081359360208301359350604090920135919050565b60208082526024908201527f4465706f736974206661696c656420496e737572616e6365206e6f7420637265604082015263185d195960e21b606082015260800190565b634e487b7160e01b600052601160045260246000fd5b808201808211156111c8576111c8611809565b600181811c9082168061184657607f821691505b60208210810361186657634e487b7160e01b600052602260045260246000fd5b50919050565b6000815461187981611832565b80855260206001838116801561189657600181146118b0576118de565b60ff1985168884015283151560051b8801830195506118de565b866000528260002060005b858110156118d65781548a82018601529083019084016118bb565b890184019650505b505050505092915050565b60a0815260006118fc60a083018861186c565b828103602084015261190e818861186c565b604084019690965250506001600160a01b0392909216606083015260809091015292915050565b86815260c06020820152600061194e60c08301886115ff565b8281036040840152611960818861186c565b6001600160a01b0396871660608501529490951660808301525060a00152949350505050565b80820281158282048414176111c8576111c8611809565b6000826119ba57634e487b7160e01b600052601260045260246000fd5b500490565b818103818111156111c8576111c8611809565b600080604083850312156119e557600080fd5b505080516020909101519092909150565b601f821115611a4057600081815260208120601f850160051c81016020861015611a1d5750805b601f850160051c820191505b81811015611a3c57828155600101611a29565b5050505b505050565b815167ffffffffffffffff811115611a5f57611a5f611515565b611a7381611a6d8454611832565b846119f6565b602080601f831160018114611aa85760008415611a905750858301515b600019600386901b1c1916600185901b178555611a3c565b600085815260208120601f198616915b82811015611ad757888601518255948401946001909101908401611ab8565b5085821015611af55787850151600019600388901b60f8161c191681555b5050505050600190811b01905550565b60e081526000611b1860e083018a6115ff565b8281036020840152611b2a818a6115ff565b604084018990526001600160a01b03881660608501529150611b519050608083018661165b565b8360a083015264ffffffffff831660c083015298975050505050505050565b64ffffffffff818116838216019080821115611b8e57611b8e611809565b5092915050565b60a081526000611ba860a083018861186c565b9050856020830152846040830152836060830152611bc9608083018461165b565b9695505050505050565b600060208284031215611be557600080fd5b815180151581146112b757600080fd5b60ff81811683821601908111156111c8576111c861180956fea2646970667358221220ca067c7b798afab5263a7ba5f99092f3f680a06732ab1c1ff96f72415869be1364736f6c63430008110033",
    "linkReferences": {}
  },
  "methodIdentifiers": {
    "buyCover(uint256,uint256,uint256)": "ee234a81",
    "createNewInsure(string,string,string,uint256,uint8)": "cf03d77f",
    "createOnExistinginsure(uint256,uint256)": "1721d835",
    "getAllUsersOfProtocol(uint256)": "0ba04ac3",
    "getProtocolData(uint256)": "bfbbc2cc",
    "id()": "af640d0f",
    "riskAssessorGetsClaimBack(uint256)": "ca1e1622",
    "riskassessorWithdrawCover(uint256)": "ae2ab9aa",
    "riskassessorWithdrawProfit(uint256)": "d8cf6cf9",
    "setGovernanceAddress(address)": "cfc16254",
    "setTokenAddress(address)": "26a4e8d2",
    "userGetClaim(uint256)": "08df94e8",
    "userRequestCover(uint256,string)": "a992932a",
    "viewProtocolCoverUser(uint256)": "e246cb5a",
    "viewRiskAssessorData(uint256)": "8dd48be5",
    "withDrawFee(address)": "43a4ad71"
  },
  "id": 1
}