{
  "abi": [
    {
      "inputs": [
        {
          "internalType": "address",
          "name": "_tokenAddress",
          "type": "address"
        }
      ],
      "stateMutability": "nonpayable",
      "type": "constructor"
    },
    {
      "anonymous": false,
      "inputs": [
        {
          "indexed": false,
          "internalType": "string",
          "name": "protocolName",
          "type": "string"
        },
        {
          "indexed": false,
          "internalType": "string",
          "name": "protocolDomain",
          "type": "string"
        },
        {
          "indexed": false,
          "internalType": "uint256",
          "name": "coverAdded",
          "type": "uint256"
        },
        {
          "indexed": false,
          "internalType": "address",
          "name": "creatorAddress",
          "type": "address"
        },
        {
          "indexed": false,
          "internalType": "uint256",
          "name": "creationTime",
          "type": "uint256"
        }
      ],
      "name": "AddOnExistingInsure",
      "type": "event"
    },
    {
      "anonymous": false,
      "inputs": [
        {
          "indexed": false,
          "internalType": "string",
          "name": "protocol",
          "type": "string"
        },
        {
          "indexed": false,
          "internalType": "uint256",
          "name": "totalCoverBought",
          "type": "uint256"
        },
        {
          "indexed": false,
          "internalType": "uint256",
          "name": "amountPaid",
          "type": "uint256"
        },
        {
          "indexed": false,
          "internalType": "uint256",
          "name": "totalPeriod",
          "type": "uint256"
        },
        {
          "indexed": false,
          "internalType": "enum insure.RiskLevel",
          "name": "_risklevel",
          "type": "uint8"
        }
      ],
      "name": "CoverBought",
      "type": "event"
    },
    {
      "anonymous": false,
      "inputs": [
        {
          "indexed": false,
          "internalType": "string",
          "name": "protocolName",
          "type": "string"
        },
        {
          "indexed": false,
          "internalType": "string",
          "name": "protocolDomain",
          "type": "string"
        },
        {
          "indexed": false,
          "internalType": "uint256",
          "name": "totalCoverCreated",
          "type": "uint256"
        },
        {
          "indexed": false,
          "internalType": "address",
          "name": "creatorAddress",
          "type": "address"
        },
        {
          "indexed": false,
          "internalType": "enum insure.RiskLevel",
          "name": "_risklevel",
          "type": "uint8"
        },
        {
          "indexed": false,
          "internalType": "uint256",
          "name": "creationTime",
          "type": "uint256"
        }
      ],
      "name": "NewInsure",
      "type": "event"
    },
    {
      "inputs": [
        {
          "internalType": "uint256",
          "name": "_id",
          "type": "uint256"
        },
        {
          "internalType": "uint256",
          "name": "_coverPeriod",
          "type": "uint256"
        },
        {
          "internalType": "uint256",
          "name": "_coverAmount",
          "type": "uint256"
        }
      ],
      "name": "buyCover",
      "outputs": [],
      "stateMutability": "nonpayable",
      "type": "function"
    },
    {
      "inputs": [
        {
          "internalType": "string",
          "name": "protocolName",
          "type": "string"
        },
        {
          "internalType": "string",
          "name": "protocolDomain",
          "type": "string"
        },
        {
          "internalType": "string",
          "name": "_description",
          "type": "string"
        },
        {
          "internalType": "uint256",
          "name": "totalCoverAmount",
          "type": "uint256"
        },
        {
          "internalType": "enum insure.RiskLevel",
          "name": "_risklevel",
          "type": "uint8"
        }
      ],
      "name": "createNewInsure",
      "outputs": [],
      "stateMutability": "nonpayable",
      "type": "function"
    },
    {
      "inputs": [
        {
          "internalType": "uint256",
          "name": "_id",
          "type": "uint256"
        },
        {
          "internalType": "uint256",
          "name": "_coverAmount",
          "type": "uint256"
        },
        {
          "internalType": "string",
          "name": "_description",
          "type": "string"
        }
      ],
      "name": "createOnExistinginsure",
      "outputs": [],
      "stateMutability": "nonpayable",
      "type": "function"
    },
    {
      "inputs": [
        {
          "internalType": "uint256",
          "name": "_id",
          "type": "uint256"
        }
      ],
      "name": "getAllUsersOfProtocol",
      "outputs": [
        {
          "internalType": "address[]",
          "name": "",
          "type": "address[]"
        }
      ],
      "stateMutability": "view",
      "type": "function"
    },
    {
      "inputs": [
        {
          "internalType": "uint256",
          "name": "_id",
          "type": "uint256"
        }
      ],
      "name": "getProtocolData",
      "outputs": [
        {
          "internalType": "uint256",
          "name": "",
          "type": "uint256"
        },
        {
          "internalType": "uint256",
          "name": "",
          "type": "uint256"
        },
        {
          "internalType": "uint256",
          "name": "",
          "type": "uint256"
        },
        {
          "internalType": "uint256",
          "name": "",
          "type": "uint256"
        },
        {
          "internalType": "string",
          "name": "",
          "type": "string"
        },
        {
          "internalType": "string",
          "name": "",
          "type": "string"
        }
      ],
      "stateMutability": "view",
      "type": "function"
    },
    {
      "inputs": [
        {
          "internalType": "uint256",
          "name": "_idOfClaimRequests",
          "type": "uint256"
        }
      ],
      "name": "riskAssessorGetsClaimBack",
      "outputs": [],
      "stateMutability": "nonpayable",
      "type": "function"
    },
    {
      "inputs": [
        {
          "internalType": "uint256",
          "name": "_id",
          "type": "uint256"
        }
      ],
      "name": "riskassessorWithdrawCover",
      "outputs": [],
      "stateMutability": "nonpayable",
      "type": "function"
    },
    {
      "inputs": [
        {
          "internalType": "uint256",
          "name": "_id",
          "type": "uint256"
        }
      ],
      "name": "riskassessorWithdrawProfit",
      "outputs": [],
      "stateMutability": "nonpayable",
      "type": "function"
    },
    {
      "inputs": [
        {
          "internalType": "address",
          "name": "_governanceAddress",
          "type": "address"
        }
      ],
      "name": "setGovernanceAddress",
      "outputs": [],
      "stateMutability": "nonpayable",
      "type": "function"
    },
    {
      "inputs": [
        {
          "internalType": "address",
          "name": "_tokenAddress",
          "type": "address"
        }
      ],
      "name": "setTokenAddress",
      "outputs": [],
      "stateMutability": "nonpayable",
      "type": "function"
    },
    {
      "inputs": [
        {
          "internalType": "uint256",
          "name": "_idOfClaimRequests",
          "type": "uint256"
        }
      ],
      "name": "userGetClaim",
      "outputs": [],
      "stateMutability": "nonpayable",
      "type": "function"
    },
    {
      "inputs": [
        {
          "internalType": "uint256",
          "name": "_id",
          "type": "uint256"
        },
        {
          "internalType": "string",
          "name": "_description",
          "type": "string"
        }
      ],
      "name": "userRequestCover",
      "outputs": [],
      "stateMutability": "nonpayable",
      "type": "function"
    },
    {
      "inputs": [
        {
          "internalType": "uint256",
          "name": "_id",
          "type": "uint256"
        }
      ],
      "name": "viewProtocolCoverUser",
      "outputs": [
        {
          "components": [
            {
              "internalType": "uint256",
              "name": "totalCoverBought",
              "type": "uint256"
            },
            {
              "internalType": "uint256",
              "name": "covePaidFor",
              "type": "uint256"
            },
            {
              "internalType": "uint256",
              "name": "dateBought",
              "type": "uint256"
            },
            {
              "internalType": "bool",
              "name": "requestedCover",
              "type": "bool"
            }
          ],
          "internalType": "struct insure.Users",
          "name": "",
          "type": "tuple"
        }
      ],
      "stateMutability": "view",
      "type": "function"
    },
    {
      "inputs": [
        {
          "internalType": "uint256",
          "name": "_id",
          "type": "uint256"
        }
      ],
      "name": "viewRiskAssessorData",
      "outputs": [
        {
          "components": [
            {
              "internalType": "uint256",
              "name": "totalCoverProvided",
              "type": "uint256"
            },
            {
              "internalType": "uint256",
              "name": "initialCoverCreationDate",
              "type": "uint256"
            },
            {
              "internalType": "string",
              "name": "description",
              "type": "string"
            }
          ],
          "internalType": "struct insure.RiskAsessor",
          "name": "",
          "type": "tuple"
        }
      ],
      "stateMutability": "view",
      "type": "function"
    },
    {
      "inputs": [
        {
          "internalType": "address",
          "name": "_feeAddress",
          "type": "address"
        }
      ],
      "name": "withDrawFee",
      "outputs": [],
      "stateMutability": "nonpayable",
      "type": "function"
    }
  ],
  "bytecode": {
    "object": "0x608060405260008054600164ffffffffff199091168117909155805460ff60a01b1916600160a11b1790556003805460ff19168117905534801561004257600080fd5b50604051611ca8380380611ca8833981016040819052610061916100a3565b60008054600160281b600160c81b031916336501000000000002179055600180546001600160a01b0319166001600160a01b03929092169190911790556100d3565b6000602082840312156100b557600080fd5b81516001600160a01b03811681146100cc57600080fd5b9392505050565b611bc6806100e26000396000f3fe608060405234801561001057600080fd5b50600436106100f55760003560e01c8063ae2ab9aa11610097578063cfc1625411610066578063cfc1625414610202578063d8cf6cf914610215578063e246cb5a14610228578063ee234a811461027057600080fd5b8063ae2ab9aa146101a4578063bfbbc2cc146101b7578063ca1e1622146101dc578063cf03d77f146101ef57600080fd5b806343a4ad71116100d357806343a4ad711461014b57806358bb85b01461015e5780638dd48be514610171578063a992932a1461019157600080fd5b806308df94e8146100fa5780630ba04ac31461010f57806326a4e8d214610138575b600080fd5b61010d6101083660046113be565b610283565b005b61012261011d3660046113be565b6102e8565b60405161012f91906113d7565b60405180910390f35b61010d610146366004611424565b61035a565b61010d610159366004611424565b61038d565b61010d61016c3660046114f0565b6103f9565b61018461017f3660046113be565b6104fb565b60405161012f9190611586565b61010d61019f3660046115b5565b6105f3565b61010d6101b23660046113be565b61078e565b6101ca6101c53660046113be565b6108c1565b60405161012f969594939291906115fc565b61010d6101ea3660046113be565b610a2b565b61010d6101fd366004611646565b610ad7565b61010d610210366004611424565b610c4c565b61010d6102233660046113be565b610c85565b61023b6102363660046113be565b610e2b565b60405161012f919081518152602080830151908201526040808301519082015260609182015115159181019190915260800190565b61010d61027e3660046116f1565b610ead565b60035460405163958610ff60e01b8152600481018390526101009091046001600160a01b03169063958610ff90602401600060405180830381600087803b1580156102cd57600080fd5b505af11580156102e1573d6000803e3d6000fd5b5050505050565b600081815260056020908152604091829020600881018054845181850281018501909552808552606094929383018282801561034d57602002820191906000526020600020905b81546001600160a01b0316815260019091019060200180831161032f575b5050505050915050919050565b61036261109c565b61036b816110ed565b600180546001600160a01b0319166001600160a01b0392909216919091179055565b61039561109c565b60006103a382600254611103565b90506001811515146103f05760405162461bcd60e51b81526020600482015260116024820152702332b2903737ba103bb4ba34323930bbb760791b60448201526064015b60405180910390fd5b50506000600255565b60006104048361118c565b90506001811515146104285760405162461bcd60e51b81526004016103e79061171d565b60008481526005602052604081206001810180549192869261044b908490611777565b9091555050336000908152600a82016020526040902060020161046e8482611813565b50336000908152600a8201602052604081208054869290610490908490611777565b9091555050336000818152600a830160205260409081902042600190910181905590517f1051e6f724aa6a842902afaf8c5a126e451a819e09252c8217368167e5f4fd44926104ec92600486019260068701928a929091611950565b60405180910390a15050505050565b61051f60405180606001604052806000815260200160008152602001606081525090565b6000828152600560209081526040808320338452600a810183529281902081516060810183528154815260018201549381019390935260028101805491928401916105699061178a565b80601f01602080910402602001604051908101604052809291908181526020018280546105959061178a565b80156105e25780601f106105b7576101008083540402835291602001916105e2565b820191906000526020600020905b8154815290600101906020018083116105c557829003601f168201915b505050505081525050915050919050565b60008281526005602090815260408083203384526009810190925290912060020154428110156106705760405162461bcd60e51b815260206004820152602260248201527f596f752063616e277420636c61696d20636f7665722c20706572696f64206f7660448201526132b960f11b60648201526084016103e7565b33600090815260098301602052604090206003015460ff16156106d55760405162461bcd60e51b815260206004820152601760248201527f596f752063616e2774207265717565737420747769636500000000000000000060448201526064016103e7565b33600081815260098401602052604090819020546003546005860154925163581187db60e01b815291936001600160a01b0361010090920482169363581187db936107319387938b936004808d019493909116928e910161199c565b600060405180830381600087803b15801561074b57600080fd5b505af115801561075f573d6000803e3d6000fd5b5050336000908152600990950160205250506040832060038101805460ff191660011790559290925550505050565b6000818152600560209081526040808320338452600a8101909252909120600101546107bd8162278d00611777565b4210156107c957600080fd5b60028201546001830154336000908152600a8501602052604081205490826107f185846119ed565b6107fb9190611a04565b905060006108093383611103565b905060018115151461085d5760405162461bcd60e51b815260206004820181905260248201527f436f756c646e277420776974686472617720636f7665722070726f766964656460448201526064016103e7565b818760020160008282546108719190611a26565b925050819055508187600101600082825461088c9190611a26565b9091555050336000908152600a88016020526040812080548492906108b2908490611a26565b90915550505050505050505050565b6000806000806060806000600560008981526020019081526020016000209050806000015481600101548260020154836003015484600401856006018180546109099061178a565b80601f01602080910402602001604051908101604052809291908181526020018280546109359061178a565b80156109825780601f1061095757610100808354040283529160200191610982565b820191906000526020600020905b81548152906001019060200180831161096557829003601f168201915b505050505091508080546109959061178a565b80601f01602080910402602001604051908101604052809291908181526020018280546109c19061178a565b8015610a0e5780601f106109e357610100808354040283529160200191610a0e565b820191906000526020600020905b8154815290600101906020018083116109f157829003601f168201915b505050505090509650965096509650965096505091939550919395565b60035460405163059584a560e41b81526004810183905260009182916101009091046001600160a01b0316906359584a509060240160408051808303816000875af1158015610a7e573d6000803e3d6000fd5b505050506040513d601f19601f82011682018060405250810190610aa29190611a39565b60008281526005602052604081206002810180549496509294509284929190610acc908490611777565b909155505050505050565b6000610ae28361118c565b9050600181151514610b065760405162461bcd60e51b81526004016103e79061171d565b6000805464ffffffffff16815260056020526040902060048101610b2a8882611813565b5060068101610b398782611813565b5083816001016000828254610b4e9190611777565b909155505060078101805484919060ff19166001836004811115610b7457610b74611a5d565b02179055506005810180546001600160a01b031916339081179091556000908152600a820160205260409020600201610bad8682611813565b50336000908152600a8201602052604081208581554260019182015581549091908190610be290849064ffffffffff16611a73565b92506101000a81548164ffffffffff021916908364ffffffffff1602179055507f0c684946b373083c13da640dccc1cfdb8c4a138f10f1db9b1d77fcd5184b12c6878786338742604051610c3b96959493929190611aba565b60405180910390a150505050505050565b610c5461109c565b610c5d816110ed565b600380546001600160a01b0390921661010002610100600160a81b0319909216919091179055565b6000818152600560209081526040808320338452600a81019092528220546001820154600383015492939192909182610cbe83866119ed565b610cc89190611a04565b600154909150600090606490610ce890600160a01b900460ff16846119ed565b610cf29190611a04565b600354909150600090606490610d0c90859060ff166119ed565b610d169190611a04565b9050600081610d258486611a26565b610d2f9190611a26565b90506000610d3d3383611103565b9050600181151514610d915760405162461bcd60e51b815260206004820181905260248201527f436f756c646e277420706572666f726d20746865207472616e73616374696f6e60448201526064016103e7565b600354604051630b3ab7f360e21b8152600481018590526101009091046001600160a01b031690632ceadfcc90602401600060405180830381600087803b158015610ddb57600080fd5b505af1158015610def573d6000803e3d6000fd5b5050336000908152600a8c016020526040812081905560028054889450909250610e1a908490611777565b909155505050505050505050505050565b610e5860405180608001604052806000815260200160008152602001600081526020016000151581525090565b50600090815260056020908152604080832033845260090182529182902082516080810184528154815260018201549281019290925260028101549282019290925260039091015460ff161515606082015290565b60008381526005602052604081206007810154909160ff90911690610ed3828686611218565b90506000610ee08261118c565b9050600181151514610f045760405162461bcd60e51b81526004016103e79061171d565b8484600201541015610f585760405162461bcd60e51b815260206004820152601d60248201527f4e6f7420656e6f75676820636f766572206c65667420666f7220796f7500000060448201526064016103e7565b33600090815260098501602052604081208054879290610f79908490611777565b9250508190555084846002016000828254610f949190611a26565b90915550610fa7905086620151806119ed565b610fb19042611777565b33600090815260098601602052604081206002018054909190610fd5908490611777565b909155505033600090815260098501602052604081206001018054849290610ffe908490611777565b92505081905550818460030160008282546110199190611777565b90915550503360008181526009860160209081526040808320600301805460ff19169055600888018054600181018255908452919092200180546001600160a01b031916909217909155517fb73a72b6f7b7c4f27bfbaff24380d4edd92287d3503a1266299ed965e47d08d090610c3b906004870190889086908b908990611b17565b6000546501000000000090046001600160a01b031633146110eb5760405162461bcd60e51b81526020600482015260096024820152682737ba1030b236b4b760b91b60448201526064016103e7565b565b6001600160a01b03811661110057600080fd5b50565b600061110e8261136e565b60015460405163a9059cbb60e01b81526001600160a01b038581166004830152602482018590529091169063a9059cbb906044016020604051808303816000875af1158015611161573d6000803e3d6000fd5b505050506040513d601f19601f820116820180604052508101906111859190611b55565b9392505050565b60006111978261136e565b6001546040516323b872dd60e01b8152336004820152306024820152604481018490526001600160a01b03909116906323b872dd906064016020604051808303816000875af11580156111ee573d6000803e3d6000fd5b505050506040513d601f19601f820116820180604052508101906112129190611b55565b92915050565b60008084600481111561122d5761122d611a5d565b036112745761124061016d6103e86119ed565b61124a83856119ed565b61125660006019611b77565b60ff1661126391906119ed565b61126d9190611a04565b9050611185565b600184600481111561128857611288611a5d565b036112b15761129b61016d6103e86119ed565b6112a583856119ed565b61125660146019611b77565b60028460048111156112c5576112c5611a5d565b036112ee576112d861016d6103e86119ed565b6112e283856119ed565b61125660286019611b77565b600384600481111561130257611302611a5d565b0361132b5761131561016d6103e86119ed565b61131f83856119ed565b611256603c6019611b77565b61133961016d6103e86119ed565b61134383856119ed565b61134f60506019611b77565b60ff1661135c91906119ed565b6113669190611a04565b949350505050565b600081116111005760405162461bcd60e51b815260206004820181905260248201527f416d6f756e74206d7573742062652067726561746572207468616e207a65726f60448201526064016103e7565b6000602082840312156113d057600080fd5b5035919050565b6020808252825182820181905260009190848201906040850190845b818110156114185783516001600160a01b0316835292840192918401916001016113f3565b50909695505050505050565b60006020828403121561143657600080fd5b81356001600160a01b038116811461118557600080fd5b634e487b7160e01b600052604160045260246000fd5b600082601f83011261147457600080fd5b813567ffffffffffffffff8082111561148f5761148f61144d565b604051601f8301601f19908116603f011681019082821181831017156114b7576114b761144d565b816040528381528660208588010111156114d057600080fd5b836020870160208301376000602085830101528094505050505092915050565b60008060006060848603121561150557600080fd5b8335925060208401359150604084013567ffffffffffffffff81111561152a57600080fd5b61153686828701611463565b9150509250925092565b6000815180845260005b818110156115665760208185018101518683018201520161154a565b506000602082860101526020601f19601f83011685010191505092915050565b602081528151602082015260208201516040820152600060408301516060808401526113666080840182611540565b600080604083850312156115c857600080fd5b82359150602083013567ffffffffffffffff8111156115e657600080fd5b6115f285828601611463565b9150509250929050565b86815285602082015284604082015283606082015260c06080820152600061162760c0830185611540565b82810360a08401526116398185611540565b9998505050505050505050565b600080600080600060a0868803121561165e57600080fd5b853567ffffffffffffffff8082111561167657600080fd5b61168289838a01611463565b9650602088013591508082111561169857600080fd5b6116a489838a01611463565b955060408801359150808211156116ba57600080fd5b506116c788828901611463565b935050606086013591506080860135600581106116e357600080fd5b809150509295509295909350565b60008060006060848603121561170657600080fd5b505081359360208301359350604090920135919050565b60208082526024908201527f4465706f736974206661696c656420496e737572616e6365206e6f7420637265604082015263185d195960e21b606082015260800190565b634e487b7160e01b600052601160045260246000fd5b8082018082111561121257611212611761565b600181811c9082168061179e57607f821691505b6020821081036117be57634e487b7160e01b600052602260045260246000fd5b50919050565b601f82111561180e57600081815260208120601f850160051c810160208610156117eb5750805b601f850160051c820191505b8181101561180a578281556001016117f7565b5050505b505050565b815167ffffffffffffffff81111561182d5761182d61144d565b6118418161183b845461178a565b846117c4565b602080601f831160018114611876576000841561185e5750858301515b600019600386901b1c1916600185901b17855561180a565b600085815260208120601f198616915b828110156118a557888601518255948401946001909101908401611886565b50858210156118c35787850151600019600388901b60f8161c191681555b5050505050600190811b01905550565b600081546118e08161178a565b8085526020600183811680156118fd576001811461191757611945565b60ff1985168884015283151560051b880183019550611945565b866000528260002060005b8581101561193d5781548a8201860152908301908401611922565b890184019650505b505050505092915050565b60a08152600061196360a08301886118d3565b828103602084015261197581886118d3565b604084019690965250506001600160a01b0392909216606083015260809091015292915050565b86815260c0602082015260006119b560c0830188611540565b82810360408401526119c781886118d3565b6001600160a01b0396871660608501529490951660808301525060a00152949350505050565b808202811582820484141761121257611212611761565b600082611a2157634e487b7160e01b600052601260045260246000fd5b500490565b8181038181111561121257611212611761565b60008060408385031215611a4c57600080fd5b505080516020909101519092909150565b634e487b7160e01b600052602160045260246000fd5b64ffffffffff818116838216019080821115611a9157611a91611761565b5092915050565b60058110611ab657634e487b7160e01b600052602160045260246000fd5b9052565b60c081526000611acd60c0830189611540565b8281036020840152611adf8189611540565b604084018890526001600160a01b03871660608501529150611b0690506080830185611a98565b8260a0830152979650505050505050565b60a081526000611b2a60a08301886118d3565b9050856020830152846040830152836060830152611b4b6080830184611a98565b9695505050505050565b600060208284031215611b6757600080fd5b8151801515811461118557600080fd5b60ff81811683821601908111156112125761121261176156fea264697066735822122007ab3c65b32e2a0f3c822d874680d1aab2975520b8383616aa249cf175abd19a64736f6c63430008110033",
    "linkReferences": {}
  },
  "methodIdentifiers": {
    "buyCover(uint256,uint256,uint256)": "ee234a81",
    "createNewInsure(string,string,string,uint256,uint8)": "cf03d77f",
    "createOnExistinginsure(uint256,uint256,string)": "58bb85b0",
    "getAllUsersOfProtocol(uint256)": "0ba04ac3",
    "getProtocolData(uint256)": "bfbbc2cc",
    "riskAssessorGetsClaimBack(uint256)": "ca1e1622",
    "riskassessorWithdrawCover(uint256)": "ae2ab9aa",
    "riskassessorWithdrawProfit(uint256)": "d8cf6cf9",
    "setGovernanceAddress(address)": "cfc16254",
    "setTokenAddress(address)": "26a4e8d2",
    "userGetClaim(uint256)": "08df94e8",
    "userRequestCover(uint256,string)": "a992932a",
    "viewProtocolCoverUser(uint256)": "e246cb5a",
    "viewRiskAssessorData(uint256)": "8dd48be5",
    "withDrawFee(address)": "43a4ad71"
  },
  "id": 1
}