{
  "abi": [
    {
      "inputs": [
        {
          "internalType": "address",
          "name": "_tokenAddress",
          "type": "address"
        },
        {
          "internalType": "address",
          "name": "_insuranceAddress",
          "type": "address"
        },
        {
          "internalType": "uint256",
          "name": "_minimumJoinDAO",
          "type": "uint256"
        },
        {
          "internalType": "uint256",
          "name": "_maximumJoinDAO",
          "type": "uint256"
        }
      ],
      "stateMutability": "nonpayable",
      "type": "constructor"
    },
    {
      "anonymous": false,
      "inputs": [
        {
          "indexed": false,
          "internalType": "address",
          "name": "member",
          "type": "address"
        },
        {
          "indexed": false,
          "internalType": "uint256",
          "name": "amount",
          "type": "uint256"
        }
      ],
      "name": "JoinedDAO",
      "type": "event"
    },
    {
      "inputs": [],
      "name": "claimGovernanceFee",
      "outputs": [],
      "stateMutability": "nonpayable",
      "type": "function"
    },
    {
      "inputs": [],
      "name": "claimRequiredVoting",
      "outputs": [
        {
          "internalType": "uint256",
          "name": "result",
          "type": "uint256"
        }
      ],
      "stateMutability": "view",
      "type": "function"
    },
    {
      "inputs": [
        {
          "internalType": "uint256",
          "name": "_amount",
          "type": "uint256"
        }
      ],
      "name": "depositGovernanceFee",
      "outputs": [],
      "stateMutability": "nonpayable",
      "type": "function"
    },
    {
      "inputs": [
        {
          "internalType": "uint256",
          "name": "_joinAmount",
          "type": "uint256"
        }
      ],
      "name": "joinDAO",
      "outputs": [],
      "stateMutability": "nonpayable",
      "type": "function"
    },
    {
      "inputs": [],
      "name": "joinDAOMaximum",
      "outputs": [
        {
          "internalType": "uint256",
          "name": "",
          "type": "uint256"
        }
      ],
      "stateMutability": "view",
      "type": "function"
    },
    {
      "inputs": [],
      "name": "joinDAOMinimum",
      "outputs": [
        {
          "internalType": "uint256",
          "name": "",
          "type": "uint256"
        }
      ],
      "stateMutability": "view",
      "type": "function"
    },
    {
      "inputs": [
        {
          "internalType": "address",
          "name": "_memberAddress",
          "type": "address"
        }
      ],
      "name": "memberViewData",
      "outputs": [
        {
          "components": [
            {
              "internalType": "uint256",
              "name": "Amount",
              "type": "uint256"
            },
            {
              "internalType": "uint256",
              "name": "votePower",
              "type": "uint256"
            },
            {
              "internalType": "bool",
              "name": "joined",
              "type": "bool"
            },
            {
              "internalType": "uint256",
              "name": "dateJoined",
              "type": "uint256"
            },
            {
              "internalType": "uint256",
              "name": "newClaim",
              "type": "uint256"
            },
            {
              "internalType": "address",
              "name": "memberAddress",
              "type": "address"
            }
          ],
          "internalType": "struct Governance.DAOMembers",
          "name": "",
          "type": "tuple"
        }
      ],
      "stateMutability": "view",
      "type": "function"
    },
    {
      "inputs": [],
      "name": "memberWithdrawFunds",
      "outputs": [],
      "stateMutability": "nonpayable",
      "type": "function"
    },
    {
      "inputs": [
        {
          "internalType": "uint256",
          "name": "_amountRequest",
          "type": "uint256"
        },
        {
          "internalType": "string",
          "name": "_description",
          "type": "string"
        },
        {
          "internalType": "string",
          "name": "_protocolName",
          "type": "string"
        },
        {
          "internalType": "address",
          "name": "_riskProvider",
          "type": "address"
        },
        {
          "internalType": "address",
          "name": "_claimerAddress",
          "type": "address"
        },
        {
          "internalType": "uint256",
          "name": "_insuranceID",
          "type": "uint256"
        }
      ],
      "name": "requestCoverClaim",
      "outputs": [],
      "stateMutability": "nonpayable",
      "type": "function"
    },
    {
      "inputs": [
        {
          "internalType": "uint256",
          "name": "_idClaimRequests",
          "type": "uint256"
        }
      ],
      "name": "riskAssessorWithdrawInsurance",
      "outputs": [
        {
          "internalType": "uint256",
          "name": "_insuranceID",
          "type": "uint256"
        },
        {
          "internalType": "uint256",
          "name": "refund",
          "type": "uint256"
        }
      ],
      "stateMutability": "nonpayable",
      "type": "function"
    },
    {
      "inputs": [
        {
          "internalType": "uint256",
          "name": "_maximumJoinDAO",
          "type": "uint256"
        }
      ],
      "name": "setMaximumToJoinDAO",
      "outputs": [],
      "stateMutability": "nonpayable",
      "type": "function"
    },
    {
      "inputs": [
        {
          "internalType": "uint256",
          "name": "_minimumJoinDAO",
          "type": "uint256"
        }
      ],
      "name": "setMinimumToJoinDAO",
      "outputs": [],
      "stateMutability": "nonpayable",
      "type": "function"
    },
    {
      "inputs": [],
      "name": "totalDAOFund",
      "outputs": [
        {
          "internalType": "uint256",
          "name": "",
          "type": "uint256"
        }
      ],
      "stateMutability": "view",
      "type": "function"
    },
    {
      "inputs": [],
      "name": "totalDAOMembers",
      "outputs": [
        {
          "internalType": "uint256",
          "name": "",
          "type": "uint256"
        }
      ],
      "stateMutability": "view",
      "type": "function"
    },
    {
      "inputs": [],
      "name": "totalVotingPower",
      "outputs": [
        {
          "internalType": "uint256",
          "name": "",
          "type": "uint256"
        }
      ],
      "stateMutability": "view",
      "type": "function"
    },
    {
      "inputs": [
        {
          "internalType": "uint256",
          "name": "_idClaimRequests",
          "type": "uint256"
        }
      ],
      "name": "userWithdrawInsurance",
      "outputs": [],
      "stateMutability": "nonpayable",
      "type": "function"
    },
    {
      "inputs": [],
      "name": "viewAllClaimRequests",
      "outputs": [
        {
          "components": [
            {
              "internalType": "uint256",
              "name": "amountRequested",
              "type": "uint256"
            },
            {
              "internalType": "string",
              "name": "description",
              "type": "string"
            },
            {
              "internalType": "string",
              "name": "protocolName",
              "type": "string"
            },
            {
              "internalType": "string",
              "name": "protocolDomain",
              "type": "string"
            },
            {
              "internalType": "address",
              "name": "riskProvider",
              "type": "address"
            },
            {
              "internalType": "address",
              "name": "claimer",
              "type": "address"
            },
            {
              "internalType": "uint256",
              "name": "claimRequestDate",
              "type": "uint256"
            },
            {
              "internalType": "uint256",
              "name": "insuranceID",
              "type": "uint256"
            },
            {
              "internalType": "address[]",
              "name": "membersvoted",
              "type": "address[]"
            },
            {
              "internalType": "uint256",
              "name": "totalVote",
              "type": "uint256"
            },
            {
              "internalType": "bool",
              "name": "claimable",
              "type": "bool"
            }
          ],
          "internalType": "struct Governance.ClaimRequests[]",
          "name": "",
          "type": "tuple[]"
        }
      ],
      "stateMutability": "view",
      "type": "function"
    },
    {
      "inputs": [],
      "name": "viewAllDAOMembers",
      "outputs": [
        {
          "components": [
            {
              "internalType": "uint256",
              "name": "Amount",
              "type": "uint256"
            },
            {
              "internalType": "uint256",
              "name": "votePower",
              "type": "uint256"
            },
            {
              "internalType": "bool",
              "name": "joined",
              "type": "bool"
            },
            {
              "internalType": "uint256",
              "name": "dateJoined",
              "type": "uint256"
            },
            {
              "internalType": "uint256",
              "name": "newClaim",
              "type": "uint256"
            },
            {
              "internalType": "address",
              "name": "memberAddress",
              "type": "address"
            }
          ],
          "internalType": "struct Governance.DAOMembers[]",
          "name": "",
          "type": "tuple[]"
        }
      ],
      "stateMutability": "view",
      "type": "function"
    },
    {
      "inputs": [
        {
          "internalType": "uint256",
          "name": "_claimID",
          "type": "uint256"
        }
      ],
      "name": "viewIndividualClaim",
      "outputs": [
        {
          "components": [
            {
              "internalType": "uint256",
              "name": "amountRequested",
              "type": "uint256"
            },
            {
              "internalType": "string",
              "name": "description",
              "type": "string"
            },
            {
              "internalType": "string",
              "name": "protocolName",
              "type": "string"
            },
            {
              "internalType": "string",
              "name": "protocolDomain",
              "type": "string"
            },
            {
              "internalType": "address",
              "name": "riskProvider",
              "type": "address"
            },
            {
              "internalType": "address",
              "name": "claimer",
              "type": "address"
            },
            {
              "internalType": "uint256",
              "name": "claimRequestDate",
              "type": "uint256"
            },
            {
              "internalType": "uint256",
              "name": "insuranceID",
              "type": "uint256"
            },
            {
              "internalType": "address[]",
              "name": "membersvoted",
              "type": "address[]"
            },
            {
              "internalType": "uint256",
              "name": "totalVote",
              "type": "uint256"
            },
            {
              "internalType": "bool",
              "name": "claimable",
              "type": "bool"
            }
          ],
          "internalType": "struct Governance.ClaimRequests",
          "name": "",
          "type": "tuple"
        }
      ],
      "stateMutability": "view",
      "type": "function"
    },
    {
      "inputs": [
        {
          "internalType": "uint256",
          "name": "_id",
          "type": "uint256"
        }
      ],
      "name": "vote",
      "outputs": [],
      "stateMutability": "nonpayable",
      "type": "function"
    },
    {
      "inputs": [
        {
          "internalType": "uint256",
          "name": "_amount",
          "type": "uint256"
        },
        {
          "internalType": "address",
          "name": "_tokenAddress",
          "type": "address"
        },
        {
          "internalType": "address",
          "name": "_withDrawTo",
          "type": "address"
        }
      ],
      "name": "withdrawCustomTokens",
      "outputs": [],
      "stateMutability": "nonpayable",
      "type": "function"
    }
  ],
  "bytecode": {
    "object": "0x608060405260016000553480156200001657600080fd5b50604051620021a7380380620021a78339810160408190526200003991620000a0565b600780546001600160a01b03199081163317909155600880546001600160a01b039687169083161790556009805494909516931692909217909255600491909155600555620000e8565b80516001600160a01b03811681146200009b57600080fd5b919050565b60008060008060808587031215620000b757600080fd5b620000c28562000083565b9350620000d26020860162000083565b6040860151606090960151949790965092505050565b6120af80620000f86000396000f3fe608060405234801561001057600080fd5b50600436106101375760003560e01c806359584a50116100b8578063c77dbf681161007c578063c77dbf681461027d578063ce30a8cd14610286578063d003fc4e1461028e578063d168da44146102a1578063e482e725146102a9578063fd480f1b146102bc57600080fd5b806359584a5014610210578063671b37931461023857806394e98d0114610241578063958610ff1461024a578063c60bb4f71461025d57600080fd5b80633fbdf32c116100ff5780633fbdf32c146101b557806348e98438146101c857806349519845146101df57806355f3292c146101f4578063581187db146101fd57600080fd5b80630121b93f1461013c578063170359ed146101515780632ceadfcc1461016457806330ad3234146101775780633344193614610195575b600080fd5b61014f61014a366004611961565b6102c4565b005b61014f61015f366004611961565b61047d565b61014f610172366004611961565b61048a565b61017f61050c565b60405161018c91906119bc565b60405180910390f35b6101a86101a3366004611a26565b6105af565b60405161018c9190611a41565b61014f6101c3366004611961565b61065f565b6101d160045481565b60405190815260200161018c565b6101e76109f4565b60405161018c9190611bc0565b6101d160025481565b61014f61020b366004611cc5565b610cc9565b61022361021e366004611961565b610eeb565b6040805192835260208301919091520161018c565b6101d160035481565b6101d160055481565b61014f610258366004611961565b610fda565b61027061026b366004611961565b611064565b60405161018c9190611d5c565b6101d160015481565b61014f611376565b61014f61029c366004611961565b611456565b6101d1611463565b61014f6102b7366004611d6f565b611485565b61014f611500565b6000818152600d60209081526040808320338452600a835292819020815160c0810183528154815260018083015494820194909452600282015460ff16151592810183905260038201546060820152600482015460808201526005909101546001600160a01b031660a082015291146103845760405162461bcd60e51b815260206004820152601f60248201527f596f7520617265206e6f742061206d656d626572206f66207468652044414f0060448201526064015b60405180910390fd5b6006820154610396906202a300611dc1565b4211156103d85760405162461bcd60e51b815260206004820152601060248201526f2b37ba34b733903a34b6b29037bb32b960811b604482015260640161037b565b60006103e433856115fa565b905080151560010361042f5760405162461bcd60e51b8152602060048201526014602482015273796f752063616e277420766f746520747769636560601b604482015260640161037b565b8151600984018054829190600090610448908490611dc1565b9091555060009050610458611463565b90508085600901541061047557600a8501805460ff191660011790555b505050505050565b6104856116be565b600455565b610492611706565b600061049d82611777565b90506001811515146104f15760405162461bcd60e51b815260206004820152601c60248201527f476f7665726e616e636520666565206e6f74206465706f736974656400000000604482015260640161037b565b81600660008282546105039190611dc1565b90915550505050565b6060600c805480602002602001604051908101604052809291908181526020016000905b828210156105a65760008481526020908190206040805160c081018252600686029092018054835260018082015484860152600282015460ff161515928401929092526003810154606084015260048101546080840152600501546001600160a01b031660a08301529083529092019101610530565b50505050905090565b6105f36040518060c001604052806000815260200160008152602001600015158152602001600081526020016000815260200160006001600160a01b031681525090565b506001600160a01b039081166000908152600a6020908152604091829020825160c08101845281548152600182015492810192909252600281015460ff16151592820192909252600382015460608201526004820154608082015260059091015490911660a082015290565b336000908152600a60205260409020600281015460ff16156106c35760405162461bcd60e51b815260206004820152601b60248201527f596f75206861766520616c7265616479206a6f696e65642044414f0000000000604482015260640161037b565b60045482101580156106d757506005548211155b6107325760405162461bcd60e51b815260206004820152602660248201527f596f7520617265206e6f742077697468696e207468652072616e6765206f6620604482015265185b5bdd5b9d60d21b606482015260840161037b565b600061073d83611777565b90506001811515146107915760405162461bcd60e51b815260206004820152601960248201527f4465706f73697420636f756c646e2774206a6f696e2044414f00000000000000604482015260640161037b565b828260000160008282546107a59190611dc1565b909155505060028201805460ff191660011790556005820180546001600160a01b031916331790556000620f42406107dc85611803565b6107e69190611dd4565b6001848101828155600c80548084018255600091825287547fdf6966c971051c3d54ec59162606531493a51404a002842f56009d7e5cf4a8c760069092029182015591547fdf6966c971051c3d54ec59162606531493a51404a002842f56009d7e5cf4a8c883015560028701547fdf6966c971051c3d54ec59162606531493a51404a002842f56009d7e5cf4a8c98301805460ff191660ff909216151591909117905560038701547fdf6966c971051c3d54ec59162606531493a51404a002842f56009d7e5cf4a8ca83015560048701547fdf6966c971051c3d54ec59162606531493a51404a002842f56009d7e5cf4a8cb83015560058701547fdf6966c971051c3d54ec59162606531493a51404a002842f56009d7e5cf4a8cc90920180546001600160a01b039093166001600160a01b031990931692909217909155815492935061093283611df6565b919050555083600260008282546109499190611dc1565b92505081905550428360030181905550806003600082825461096b9190611dc1565b9091555050600b80546001810182556000919091527f0175b7a638427703f0dbe7bb9bbf987a2551717b34e79f33b5b1008d1fa01db90180546001600160a01b0319163390811790915560408051918252602082018690527f8d7f996c3a908123fb0c331e654f4d5188db103ae4dede656c4c3b4ad300d820910160405180910390a150505050565b6060600e805480602002602001604051908101604052809291908181526020016000905b828210156105a657838290600052602060002090600b02016040518061016001604052908160008201548152602001600182018054610a5690611e0f565b80601f0160208091040260200160405190810160405280929190818152602001828054610a8290611e0f565b8015610acf5780601f10610aa457610100808354040283529160200191610acf565b820191906000526020600020905b815481529060010190602001808311610ab257829003601f168201915b50505050508152602001600282018054610ae890611e0f565b80601f0160208091040260200160405190810160405280929190818152602001828054610b1490611e0f565b8015610b615780601f10610b3657610100808354040283529160200191610b61565b820191906000526020600020905b815481529060010190602001808311610b4457829003601f168201915b50505050508152602001600382018054610b7a90611e0f565b80601f0160208091040260200160405190810160405280929190818152602001828054610ba690611e0f565b8015610bf35780601f10610bc857610100808354040283529160200191610bf3565b820191906000526020600020905b815481529060010190602001808311610bd657829003601f168201915b505050918352505060048201546001600160a01b039081166020808401919091526005840154909116604080840191909152600684015460608401526007840154608084015260088401805482518185028101850190935280835260a0909401939192909190830182828015610c9257602002820191906000526020600020905b81546001600160a01b03168152600190910190602001808311610c74575b50505091835250506009820154602080830191909152600a9092015460ff1615156040909101529082526001929092019101610a18565b610cd1611706565b6000610cdc87611777565b9050600181151514610d3c5760405162461bcd60e51b815260206004820152602360248201527f4465706f736974206661696c656420636c61696d2072657175657374206661696044820152621b195960ea1b606482015260840161037b565b600080548152600d6020526040902087815560018101610d5c8882611e8f565b5060028101610d6b8782611e8f565b506004810180546001600160a01b038088166001600160a01b0319928316179092554260068401556005830180549287169290911691909117905560078101839055600e8054600181810183556000929092528254600b9091027fbb7b4a454dc3493923482f07822329ed19e8244eff582cc204f8554c3620c3fd810191825583927fbb7b4a454dc3493923482f07822329ed19e8244eff582cc204f8554c3620c3fe90910190610e1e90840182611f4f565b50600281810190610e3190840182611f4f565b50600381810190610e4490840182611f4f565b5060048281015490820180546001600160a01b039283166001600160a01b0319918216179091556005808501549084018054919093169116179055600680830154908201556007808301549082015560088083018054610ea792840191906118fc565b5060098281015490820155600a918201549101805460ff191660ff9092161515919091179055600080549080610edc83611df6565b91905055505050505050505050565b600080610ef6611706565b6000838152600d602052604090206006810154610f16906202a300611dc1565b421015610f655760405162461bcd60e51b815260206004820152601760248201527f566f74696e672074696d65206973206e6f74206f766572000000000000000000604482015260640161037b565b600a81015460ff1615610fba5760405162461bcd60e51b815260206004820152601a60248201527f596f752063616e277420636c61696d206772616e74206261636b000000000000604482015260640161037b565b610fc8338260000154611820565b50600781015490549094909350915050565b610fe2611706565b6000818152600d60205260409020600a81015460ff1615156001146110415760405162461bcd60e51b8152602060048201526015602482015274165bdd4818d85b89dd0818db185a5b4819dc985b9d605a1b604482015260640161037b565b6000808255600582015461105e906001600160a01b031682611820565b50505050565b6110d56040518061016001604052806000815260200160608152602001606081526020016060815260200160006001600160a01b0316815260200160006001600160a01b03168152602001600081526020016000815260200160608152602001600081526020016000151581525090565b6000600d6000848152602001908152602001600020604051806101600160405290816000820154815260200160018201805461111090611e0f565b80601f016020809104026020016040519081016040528092919081815260200182805461113c90611e0f565b80156111895780601f1061115e57610100808354040283529160200191611189565b820191906000526020600020905b81548152906001019060200180831161116c57829003601f168201915b505050505081526020016002820180546111a290611e0f565b80601f01602080910402602001604051908101604052809291908181526020018280546111ce90611e0f565b801561121b5780601f106111f05761010080835404028352916020019161121b565b820191906000526020600020905b8154815290600101906020018083116111fe57829003601f168201915b5050505050815260200160038201805461123490611e0f565b80601f016020809104026020016040519081016040528092919081815260200182805461126090611e0f565b80156112ad5780601f10611282576101008083540402835291602001916112ad565b820191906000526020600020905b81548152906001019060200180831161129057829003601f168201915b505050918352505060048201546001600160a01b039081166020808401919091526005840154909116604080840191909152600684015460608401526007840154608084015260088401805482518185028101850190935280835260a090940193919290919083018282801561134c57602002820191906000526020600020905b81546001600160a01b0316815260019091019060200180831161132e575b505050918352505060098201546020820152600a9091015460ff1615156040909101529392505050565b336000908152600a6020526040902060038101546113979062278d00611dc1565b4210156113de5760405162461bcd60e51b8152602060048201526015602482015274596f752063616e27742077696864726177206e6f7760581b604482015260640161037b565b8054600080835560018301819055600383018190556113fd3383611820565b90506001811515146114515760405162461bcd60e51b815260206004820152601a60248201527f436f756c646e2774207769746864726177207468652066756e64000000000000604482015260640161037b565b505050565b61145e6116be565b600555565b60006064600354603c611476919061202a565b6114809190611dd4565b905090565b61148d6116be565b60405163a9059cbb60e01b81526001600160a01b0382811660048301526024820185905283169063a9059cbb906044016020604051808303816000875af11580156114dc573d6000803e3d6000fd5b505050506040513d601f19601f8201168201806040525081019061105e9190612041565b336000908152600a6020526040902060048101544210156115595760405162461bcd60e51b8152602060048201526013602482015272596f752063616e277420636c61696d206e6f7760681b604482015260640161037b565b80546002546006546000919061156f908461202a565b6115799190611dd4565b90506115884262278d00611dc1565b83600401600082825461159b9190611dc1565b90915550600090506115ad3383611820565b905060018115151461105e5760405162461bcd60e51b8152602060048201526016602482015275596f7520636f756c646e277420636c61696d2066656560501b604482015260640161037b565b6000818152600d602090815260408083206008018054825181850281018501909352808352849383018282801561165a57602002820191906000526020600020905b81546001600160a01b0316815260019091019060200180831161163c575b5050505050905060005b81518110156116b657846001600160a01b031682828151811061168957611689612063565b60200260200101516001600160a01b0316036116a457600192505b806116ae81611df6565b915050611664565b505092915050565b6007546001600160a01b031633146117045760405162461bcd60e51b81526020600482015260096024820152682737ba1030b236b4b760b91b604482015260640161037b565b565b6009546001600160a01b031633146117045760405162461bcd60e51b815260206004820152602e60248201527f4f6e6c7920696e737572616e636520636f6e74726163742063616e2063616c6c60448201526d103a3434b990333ab731ba34b7b760911b606482015260840161037b565b6000611782826118a9565b6008546040516323b872dd60e01b8152336004820152306024820152604481018490526001600160a01b03909116906323b872dd906064016020604051808303816000875af11580156117d9573d6000803e3d6000fd5b505050506040513d601f19601f820116820180604052508101906117fd9190612041565b92915050565b60045460009061181683620f424061202a565b6117fd9190611dd4565b600061182b826118a9565b60085460405163a9059cbb60e01b81526001600160a01b038581166004830152602482018590529091169063a9059cbb906044016020604051808303816000875af115801561187e573d6000803e3d6000fd5b505050506040513d601f19601f820116820180604052508101906118a29190612041565b9392505050565b600081116118f95760405162461bcd60e51b815260206004820181905260248201527f416d6f756e74206d7573742062652067726561746572207468616e207a65726f604482015260640161037b565b50565b82805482825590600052602060002090810192821561193c5760005260206000209182015b8281111561193c578254825591600101919060010190611921565b5061194892915061194c565b5090565b5b80821115611948576000815560010161194d565b60006020828403121561197357600080fd5b5035919050565b8051825260208082015190830152604080820151151590830152606080820151908301526080808201519083015260a0908101516001600160a01b0316910152565b6020808252825182820181905260009190848201906040850190845b818110156119fe576119eb83855161197a565b9284019260c092909201916001016119d8565b50909695505050505050565b80356001600160a01b0381168114611a2157600080fd5b919050565b600060208284031215611a3857600080fd5b6118a282611a0a565b60c081016117fd828461197a565b6000815180845260005b81811015611a7557602081850181015186830182015201611a59565b506000602082860101526020601f19601f83011685010191505092915050565b600081518084526020808501945080840160005b83811015611ace5781516001600160a01b031687529582019590820190600101611aa9565b509495945050505050565b6000610160825184526020830151816020860152611af982860182611a4f565b91505060408301518482036040860152611b138282611a4f565b91505060608301518482036060860152611b2d8282611a4f565b9150506080830151611b4a60808601826001600160a01b03169052565b5060a0830151611b6560a08601826001600160a01b03169052565b5060c083015160c085015260e083015160e08501526101008084015185830382870152611b928382611a95565b9250505061012080840151818601525061014080840151611bb68287018215159052565b5090949350505050565b6000602080830181845280855180835260408601915060408160051b870101925083870160005b82811015611c1557603f19888603018452611c03858351611ad9565b94509285019290850190600101611be7565b5092979650505050505050565b634e487b7160e01b600052604160045260246000fd5b600082601f830112611c4957600080fd5b813567ffffffffffffffff80821115611c6457611c64611c22565b604051601f8301601f19908116603f01168101908282118183101715611c8c57611c8c611c22565b81604052838152866020858801011115611ca557600080fd5b836020870160208301376000602085830101528094505050505092915050565b60008060008060008060c08789031215611cde57600080fd5b86359550602087013567ffffffffffffffff80821115611cfd57600080fd5b611d098a838b01611c38565b96506040890135915080821115611d1f57600080fd5b50611d2c89828a01611c38565b945050611d3b60608801611a0a565b9250611d4960808801611a0a565b915060a087013590509295509295509295565b6020815260006118a26020830184611ad9565b600080600060608486031215611d8457600080fd5b83359250611d9460208501611a0a565b9150611da260408501611a0a565b90509250925092565b634e487b7160e01b600052601160045260246000fd5b808201808211156117fd576117fd611dab565b600082611df157634e487b7160e01b600052601260045260246000fd5b500490565b600060018201611e0857611e08611dab565b5060010190565b600181811c90821680611e2357607f821691505b602082108103611e4357634e487b7160e01b600052602260045260246000fd5b50919050565b601f82111561145157600081815260208120601f850160051c81016020861015611e705750805b601f850160051c820191505b8181101561047557828155600101611e7c565b815167ffffffffffffffff811115611ea957611ea9611c22565b611ebd81611eb78454611e0f565b84611e49565b602080601f831160018114611ef25760008415611eda5750858301515b600019600386901b1c1916600185901b178555610475565b600085815260208120601f198616915b82811015611f2157888601518255948401946001909101908401611f02565b5085821015611f3f5787850151600019600388901b60f8161c191681555b5050505050600190811b01905550565b818103611f5a575050565b611f648254611e0f565b67ffffffffffffffff811115611f7c57611f7c611c22565b611f8a81611eb78454611e0f565b6000601f821160018114611fbe5760008315611fa65750848201545b600019600385901b1c1916600184901b178455612023565b600085815260209020601f19841690600086815260209020845b83811015611ff85782860154825560019586019590910190602001611fd8565b50858310156120165781850154600019600388901b60f8161c191681555b50505060018360011b0184555b5050505050565b80820281158282048414176117fd576117fd611dab565b60006020828403121561205357600080fd5b815180151581146118a257600080fd5b634e487b7160e01b600052603260045260246000fdfea26469706673582212205dfcdeda40e1f3ae6fd32887daba278d6c147f323e15258ef9b97daa07749c4264736f6c63430008110033",
    "linkReferences": {}
  },
  "methodIdentifiers": {
    "claimGovernanceFee()": "fd480f1b",
    "claimRequiredVoting()": "d168da44",
    "depositGovernanceFee(uint256)": "2ceadfcc",
    "joinDAO(uint256)": "3fbdf32c",
    "joinDAOMaximum()": "94e98d01",
    "joinDAOMinimum()": "48e98438",
    "memberViewData(address)": "33441936",
    "memberWithdrawFunds()": "ce30a8cd",
    "requestCoverClaim(uint256,string,string,address,address,uint256)": "581187db",
    "riskAssessorWithdrawInsurance(uint256)": "59584a50",
    "setMaximumToJoinDAO(uint256)": "d003fc4e",
    "setMinimumToJoinDAO(uint256)": "170359ed",
    "totalDAOFund()": "55f3292c",
    "totalDAOMembers()": "c77dbf68",
    "totalVotingPower()": "671b3793",
    "userWithdrawInsurance(uint256)": "958610ff",
    "viewAllClaimRequests()": "49519845",
    "viewAllDAOMembers()": "30ad3234",
    "viewIndividualClaim(uint256)": "c60bb4f7",
    "vote(uint256)": "0121b93f",
    "withdrawCustomTokens(uint256,address,address)": "e482e725"
  },
  "id": 0
}