{
  "abi": [
    {
      "inputs": [
        {
          "internalType": "address",
          "name": "_tokenAddress",
          "type": "address"
        },
        {
          "internalType": "address",
          "name": "_insuranceAddress",
          "type": "address"
        },
        {
          "internalType": "uint256",
          "name": "_minimumJoinDAO",
          "type": "uint256"
        },
        {
          "internalType": "uint256",
          "name": "_maximumJoinDAO",
          "type": "uint256"
        }
      ],
      "stateMutability": "nonpayable",
      "type": "constructor"
    },
    {
      "anonymous": false,
      "inputs": [
        {
          "indexed": false,
          "internalType": "address",
          "name": "member",
          "type": "address"
        },
        {
          "indexed": false,
          "internalType": "uint256",
          "name": "amount",
          "type": "uint256"
        }
      ],
      "name": "JoinedDAO",
      "type": "event"
    },
    {
      "inputs": [],
      "name": "claimGovernanceFee",
      "outputs": [],
      "stateMutability": "nonpayable",
      "type": "function"
    },
    {
      "inputs": [],
      "name": "claimRequiredVoting",
      "outputs": [
        {
          "internalType": "uint256",
          "name": "result",
          "type": "uint256"
        }
      ],
      "stateMutability": "view",
      "type": "function"
    },
    {
      "inputs": [
        {
          "internalType": "uint256",
          "name": "_amount",
          "type": "uint256"
        }
      ],
      "name": "depositGovernanceFee",
      "outputs": [],
      "stateMutability": "nonpayable",
      "type": "function"
    },
    {
      "inputs": [
        {
          "internalType": "uint256",
          "name": "_joinAmount",
          "type": "uint256"
        }
      ],
      "name": "joinDAO",
      "outputs": [],
      "stateMutability": "nonpayable",
      "type": "function"
    },
    {
      "inputs": [],
      "name": "joinDAOMaximum",
      "outputs": [
        {
          "internalType": "uint256",
          "name": "",
          "type": "uint256"
        }
      ],
      "stateMutability": "view",
      "type": "function"
    },
    {
      "inputs": [],
      "name": "joinDAOMinimum",
      "outputs": [
        {
          "internalType": "uint256",
          "name": "",
          "type": "uint256"
        }
      ],
      "stateMutability": "view",
      "type": "function"
    },
    {
      "inputs": [
        {
          "internalType": "address",
          "name": "_memberAddress",
          "type": "address"
        }
      ],
      "name": "memberViewData",
      "outputs": [
        {
          "components": [
            {
              "internalType": "uint256",
              "name": "Amount",
              "type": "uint256"
            },
            {
              "internalType": "uint256",
              "name": "votePower",
              "type": "uint256"
            },
            {
              "internalType": "bool",
              "name": "joined",
              "type": "bool"
            },
            {
              "internalType": "uint256",
              "name": "dateJoined",
              "type": "uint256"
            },
            {
              "internalType": "uint256",
              "name": "newClaim",
              "type": "uint256"
            }
          ],
          "internalType": "struct Governance.DAOMembers",
          "name": "",
          "type": "tuple"
        }
      ],
      "stateMutability": "view",
      "type": "function"
    },
    {
      "inputs": [],
      "name": "memberWithdrawFunds",
      "outputs": [],
      "stateMutability": "nonpayable",
      "type": "function"
    },
    {
      "inputs": [
        {
          "internalType": "uint256",
          "name": "_amountRequest",
          "type": "uint256"
        },
        {
          "internalType": "string",
          "name": "_description",
          "type": "string"
        },
        {
          "internalType": "string",
          "name": "_protocolName",
          "type": "string"
        },
        {
          "internalType": "address",
          "name": "_riskProvider",
          "type": "address"
        },
        {
          "internalType": "address",
          "name": "_claimerAddress",
          "type": "address"
        },
        {
          "internalType": "uint256",
          "name": "_insuranceID",
          "type": "uint256"
        }
      ],
      "name": "requestCoverClaim",
      "outputs": [],
      "stateMutability": "nonpayable",
      "type": "function"
    },
    {
      "inputs": [
        {
          "internalType": "uint256",
          "name": "_idClaimRequests",
          "type": "uint256"
        }
      ],
      "name": "riskAssessorWithdrawInsurance",
      "outputs": [
        {
          "internalType": "uint256",
          "name": "_insuranceID",
          "type": "uint256"
        },
        {
          "internalType": "uint256",
          "name": "refund",
          "type": "uint256"
        }
      ],
      "stateMutability": "nonpayable",
      "type": "function"
    },
    {
      "inputs": [
        {
          "internalType": "uint256",
          "name": "_maximumJoinDAO",
          "type": "uint256"
        }
      ],
      "name": "setMaximumToJoinDAO",
      "outputs": [],
      "stateMutability": "nonpayable",
      "type": "function"
    },
    {
      "inputs": [
        {
          "internalType": "uint256",
          "name": "_minimumJoinDAO",
          "type": "uint256"
        }
      ],
      "name": "setMinimumToJoinDAO",
      "outputs": [],
      "stateMutability": "nonpayable",
      "type": "function"
    },
    {
      "inputs": [],
      "name": "totalDAOFund",
      "outputs": [
        {
          "internalType": "uint256",
          "name": "",
          "type": "uint256"
        }
      ],
      "stateMutability": "view",
      "type": "function"
    },
    {
      "inputs": [],
      "name": "totalDAOMembers",
      "outputs": [
        {
          "internalType": "uint256",
          "name": "",
          "type": "uint256"
        }
      ],
      "stateMutability": "view",
      "type": "function"
    },
    {
      "inputs": [],
      "name": "totalVotingPower",
      "outputs": [
        {
          "internalType": "uint256",
          "name": "",
          "type": "uint256"
        }
      ],
      "stateMutability": "view",
      "type": "function"
    },
    {
      "inputs": [
        {
          "internalType": "uint256",
          "name": "_idClaimRequests",
          "type": "uint256"
        }
      ],
      "name": "userWithdrawInsurance",
      "outputs": [],
      "stateMutability": "nonpayable",
      "type": "function"
    },
    {
      "inputs": [],
      "name": "viewAllClaimRequests",
      "outputs": [
        {
          "components": [
            {
              "internalType": "uint256",
              "name": "amountRequested",
              "type": "uint256"
            },
            {
              "internalType": "string",
              "name": "description",
              "type": "string"
            },
            {
              "internalType": "string",
              "name": "protocolName",
              "type": "string"
            },
            {
              "internalType": "string",
              "name": "protocolDomain",
              "type": "string"
            },
            {
              "internalType": "address",
              "name": "riskProvider",
              "type": "address"
            },
            {
              "internalType": "address",
              "name": "claimer",
              "type": "address"
            },
            {
              "internalType": "uint256",
              "name": "claimRequestDate",
              "type": "uint256"
            },
            {
              "internalType": "uint256",
              "name": "insuranceID",
              "type": "uint256"
            },
            {
              "internalType": "address[]",
              "name": "membersvoted",
              "type": "address[]"
            },
            {
              "internalType": "uint256",
              "name": "totalVote",
              "type": "uint256"
            },
            {
              "internalType": "bool",
              "name": "claimable",
              "type": "bool"
            }
          ],
          "internalType": "struct Governance.ClaimRequests[]",
          "name": "",
          "type": "tuple[]"
        }
      ],
      "stateMutability": "view",
      "type": "function"
    },
    {
      "inputs": [],
      "name": "viewAllDAOMembers",
      "outputs": [
        {
          "components": [
            {
              "internalType": "uint256",
              "name": "Amount",
              "type": "uint256"
            },
            {
              "internalType": "uint256",
              "name": "votePower",
              "type": "uint256"
            },
            {
              "internalType": "bool",
              "name": "joined",
              "type": "bool"
            },
            {
              "internalType": "uint256",
              "name": "dateJoined",
              "type": "uint256"
            },
            {
              "internalType": "uint256",
              "name": "newClaim",
              "type": "uint256"
            }
          ],
          "internalType": "struct Governance.DAOMembers[]",
          "name": "",
          "type": "tuple[]"
        }
      ],
      "stateMutability": "view",
      "type": "function"
    },
    {
      "inputs": [
        {
          "internalType": "uint256",
          "name": "_claimID",
          "type": "uint256"
        }
      ],
      "name": "viewIndividualClaim",
      "outputs": [
        {
          "components": [
            {
              "internalType": "uint256",
              "name": "amountRequested",
              "type": "uint256"
            },
            {
              "internalType": "string",
              "name": "description",
              "type": "string"
            },
            {
              "internalType": "string",
              "name": "protocolName",
              "type": "string"
            },
            {
              "internalType": "string",
              "name": "protocolDomain",
              "type": "string"
            },
            {
              "internalType": "address",
              "name": "riskProvider",
              "type": "address"
            },
            {
              "internalType": "address",
              "name": "claimer",
              "type": "address"
            },
            {
              "internalType": "uint256",
              "name": "claimRequestDate",
              "type": "uint256"
            },
            {
              "internalType": "uint256",
              "name": "insuranceID",
              "type": "uint256"
            },
            {
              "internalType": "address[]",
              "name": "membersvoted",
              "type": "address[]"
            },
            {
              "internalType": "uint256",
              "name": "totalVote",
              "type": "uint256"
            },
            {
              "internalType": "bool",
              "name": "claimable",
              "type": "bool"
            }
          ],
          "internalType": "struct Governance.ClaimRequests",
          "name": "",
          "type": "tuple"
        }
      ],
      "stateMutability": "view",
      "type": "function"
    },
    {
      "inputs": [
        {
          "internalType": "uint256",
          "name": "_id",
          "type": "uint256"
        }
      ],
      "name": "vote",
      "outputs": [],
      "stateMutability": "nonpayable",
      "type": "function"
    },
    {
      "inputs": [
        {
          "internalType": "uint256",
          "name": "_amount",
          "type": "uint256"
        },
        {
          "internalType": "address",
          "name": "_tokenAddress",
          "type": "address"
        },
        {
          "internalType": "address",
          "name": "_withDrawTo",
          "type": "address"
        }
      ],
      "name": "withdrawCustomTokens",
      "outputs": [],
      "stateMutability": "nonpayable",
      "type": "function"
    }
  ],
  "bytecode": {
    "object": "0x608060405260016000553480156200001657600080fd5b5060405162002121380380620021218339810160408190526200003991620000a0565b600780546001600160a01b03199081163317909155600880546001600160a01b039687169083161790556009805494909516931692909217909255600491909155600555620000e8565b80516001600160a01b03811681146200009b57600080fd5b919050565b60008060008060808587031215620000b757600080fd5b620000c28562000083565b9350620000d26020860162000083565b6040860151606090960151949790965092505050565b61202980620000f86000396000f3fe608060405234801561001057600080fd5b50600436106101375760003560e01c806359584a50116100b8578063c77dbf681161007c578063c77dbf681461027d578063ce30a8cd14610286578063d003fc4e1461028e578063d168da44146102a1578063e482e725146102a9578063fd480f1b146102bc57600080fd5b806359584a5014610210578063671b37931461023857806394e98d0114610241578063958610ff1461024a578063c60bb4f71461025d57600080fd5b80633fbdf32c116100ff5780633fbdf32c146101b557806348e98438146101c857806349519845146101df57806355f3292c146101f4578063581187db146101fd57600080fd5b80630121b93f1461013c578063170359ed146101515780632ceadfcc1461016457806330ad3234146101775780633344193614610195575b600080fd5b61014f61014a3660046118c3565b6102c4565b005b61014f61015f3660046118c3565b61046a565b61014f6101723660046118c3565b610477565b61017f6104f9565b60405161018c91906118dc565b60405180910390f35b6101a86101a3366004611973565b610589565b60405161018c919061198e565b61014f6101c33660046118c3565b61061a565b6101d160045481565b60405190815260200161018c565b6101e7610956565b60405161018c9190611b3a565b6101d160025481565b61014f61020b366004611c3f565b610c2b565b61022361021e3660046118c3565b610e4d565b6040805192835260208301919091520161018c565b6101d160035481565b6101d160055481565b61014f6102583660046118c3565b610f3c565b61027061026b3660046118c3565b610fc6565b60405161018c9190611cd6565b6101d160015481565b61014f6112d8565b61014f61029c3660046118c3565b6113b8565b6101d16113c5565b61014f6102b7366004611ce9565b6113e7565b61014f611462565b6000818152600d60209081526040808320338452600a835292819020815160a0810183528154815260018083015494820194909452600282015460ff16151592810183905260038201546060820152600490910154608082015291146103715760405162461bcd60e51b815260206004820152601f60248201527f596f7520617265206e6f742061206d656d626572206f66207468652044414f0060448201526064015b60405180910390fd5b6006820154610383906202a300611d3b565b4211156103c55760405162461bcd60e51b815260206004820152601060248201526f2b37ba34b733903a34b6b29037bb32b960811b6044820152606401610368565b60006103d1338561155c565b905080151560010361041c5760405162461bcd60e51b8152602060048201526014602482015273796f752063616e277420766f746520747769636560601b6044820152606401610368565b8151600984018054829190600090610435908490611d3b565b90915550600090506104456113c5565b90508085600901541061046257600a8501805460ff191660011790555b505050505050565b610472611620565b600455565b61047f611668565b600061048a826116d9565b90506001811515146104de5760405162461bcd60e51b815260206004820152601c60248201527f476f7665726e616e636520666565206e6f74206465706f7369746564000000006044820152606401610368565b81600660008282546104f09190611d3b565b90915550505050565b6060600c805480602002602001604051908101604052809291908181526020016000905b828210156105805760008481526020908190206040805160a081018252600586029092018054835260018082015484860152600282015460ff1615159284019290925260038101546060840152600401546080830152908352909201910161051d565b50505050905090565b6105bd6040518060a00160405280600081526020016000815260200160001515815260200160008152602001600081525090565b506001600160a01b03166000908152600a6020908152604091829020825160a08101845281548152600182015492810192909252600281015460ff1615159282019290925260038201546060820152600490910154608082015290565b336000908152600a60205260409020600281015460ff161561067e5760405162461bcd60e51b815260206004820152601b60248201527f596f75206861766520616c7265616479206a6f696e65642044414f00000000006044820152606401610368565b600454821015801561069257506005548211155b6106ed5760405162461bcd60e51b815260206004820152602660248201527f596f7520617265206e6f742077697468696e207468652072616e6765206f6620604482015265185b5bdd5b9d60d21b6064820152608401610368565b60006106f8836116d9565b905060018115151461074c5760405162461bcd60e51b815260206004820152601960248201527f4465706f73697420636f756c646e2774206a6f696e2044414f000000000000006044820152606401610368565b828260000160008282546107609190611d3b565b909155505060028201805460ff191660011790556000620f424061078385611765565b61078d9190611d4e565b6001848101828155600c80548084018255600091825287547fdf6966c971051c3d54ec59162606531493a51404a002842f56009d7e5cf4a8c760059092029182015591547fdf6966c971051c3d54ec59162606531493a51404a002842f56009d7e5cf4a8c883015560028701547fdf6966c971051c3d54ec59162606531493a51404a002842f56009d7e5cf4a8c98301805460ff191660ff909216151591909117905560038701547fdf6966c971051c3d54ec59162606531493a51404a002842f56009d7e5cf4a8ca83015560048701547fdf6966c971051c3d54ec59162606531493a51404a002842f56009d7e5cf4a8cb90920191909155815492935061089483611d70565b919050555083600260008282546108ab9190611d3b565b9250508190555042836003018190555080600360008282546108cd9190611d3b565b9091555050600b80546001810182556000919091527f0175b7a638427703f0dbe7bb9bbf987a2551717b34e79f33b5b1008d1fa01db90180546001600160a01b0319163390811790915560408051918252602082018690527f8d7f996c3a908123fb0c331e654f4d5188db103ae4dede656c4c3b4ad300d820910160405180910390a150505050565b6060600e805480602002602001604051908101604052809291908181526020016000905b8282101561058057838290600052602060002090600b020160405180610160016040529081600082015481526020016001820180546109b890611d89565b80601f01602080910402602001604051908101604052809291908181526020018280546109e490611d89565b8015610a315780601f10610a0657610100808354040283529160200191610a31565b820191906000526020600020905b815481529060010190602001808311610a1457829003601f168201915b50505050508152602001600282018054610a4a90611d89565b80601f0160208091040260200160405190810160405280929190818152602001828054610a7690611d89565b8015610ac35780601f10610a9857610100808354040283529160200191610ac3565b820191906000526020600020905b815481529060010190602001808311610aa657829003601f168201915b50505050508152602001600382018054610adc90611d89565b80601f0160208091040260200160405190810160405280929190818152602001828054610b0890611d89565b8015610b555780601f10610b2a57610100808354040283529160200191610b55565b820191906000526020600020905b815481529060010190602001808311610b3857829003601f168201915b505050918352505060048201546001600160a01b039081166020808401919091526005840154909116604080840191909152600684015460608401526007840154608084015260088401805482518185028101850190935280835260a0909401939192909190830182828015610bf457602002820191906000526020600020905b81546001600160a01b03168152600190910190602001808311610bd6575b50505091835250506009820154602080830191909152600a9092015460ff161515604090910152908252600192909201910161097a565b610c33611668565b6000610c3e876116d9565b9050600181151514610c9e5760405162461bcd60e51b815260206004820152602360248201527f4465706f736974206661696c656420636c61696d2072657175657374206661696044820152621b195960ea1b6064820152608401610368565b600080548152600d6020526040902087815560018101610cbe8882611e09565b5060028101610ccd8782611e09565b506004810180546001600160a01b038088166001600160a01b0319928316179092554260068401556005830180549287169290911691909117905560078101839055600e8054600181810183556000929092528254600b9091027fbb7b4a454dc3493923482f07822329ed19e8244eff582cc204f8554c3620c3fd810191825583927fbb7b4a454dc3493923482f07822329ed19e8244eff582cc204f8554c3620c3fe90910190610d8090840182611ec9565b50600281810190610d9390840182611ec9565b50600381810190610da690840182611ec9565b5060048281015490820180546001600160a01b039283166001600160a01b0319918216179091556005808501549084018054919093169116179055600680830154908201556007808301549082015560088083018054610e09928401919061185e565b5060098281015490820155600a918201549101805460ff191660ff9092161515919091179055600080549080610e3e83611d70565b91905055505050505050505050565b600080610e58611668565b6000838152600d602052604090206006810154610e78906202a300611d3b565b421015610ec75760405162461bcd60e51b815260206004820152601760248201527f566f74696e672074696d65206973206e6f74206f7665720000000000000000006044820152606401610368565b600a81015460ff1615610f1c5760405162461bcd60e51b815260206004820152601a60248201527f596f752063616e277420636c61696d206772616e74206261636b0000000000006044820152606401610368565b610f2a338260000154611782565b50600781015490549094909350915050565b610f44611668565b6000818152600d60205260409020600a81015460ff161515600114610fa35760405162461bcd60e51b8152602060048201526015602482015274165bdd4818d85b89dd0818db185a5b4819dc985b9d605a1b6044820152606401610368565b60008082556005820154610fc0906001600160a01b031682611782565b50505050565b6110376040518061016001604052806000815260200160608152602001606081526020016060815260200160006001600160a01b0316815260200160006001600160a01b03168152602001600081526020016000815260200160608152602001600081526020016000151581525090565b6000600d6000848152602001908152602001600020604051806101600160405290816000820154815260200160018201805461107290611d89565b80601f016020809104026020016040519081016040528092919081815260200182805461109e90611d89565b80156110eb5780601f106110c0576101008083540402835291602001916110eb565b820191906000526020600020905b8154815290600101906020018083116110ce57829003601f168201915b5050505050815260200160028201805461110490611d89565b80601f016020809104026020016040519081016040528092919081815260200182805461113090611d89565b801561117d5780601f106111525761010080835404028352916020019161117d565b820191906000526020600020905b81548152906001019060200180831161116057829003601f168201915b5050505050815260200160038201805461119690611d89565b80601f01602080910402602001604051908101604052809291908181526020018280546111c290611d89565b801561120f5780601f106111e45761010080835404028352916020019161120f565b820191906000526020600020905b8154815290600101906020018083116111f257829003601f168201915b505050918352505060048201546001600160a01b039081166020808401919091526005840154909116604080840191909152600684015460608401526007840154608084015260088401805482518185028101850190935280835260a09094019391929091908301828280156112ae57602002820191906000526020600020905b81546001600160a01b03168152600190910190602001808311611290575b505050918352505060098201546020820152600a9091015460ff1615156040909101529392505050565b336000908152600a6020526040902060038101546112f99062278d00611d3b565b4210156113405760405162461bcd60e51b8152602060048201526015602482015274596f752063616e27742077696864726177206e6f7760581b6044820152606401610368565b80546000808355600183018190556003830181905561135f3383611782565b90506001811515146113b35760405162461bcd60e51b815260206004820152601a60248201527f436f756c646e2774207769746864726177207468652066756e640000000000006044820152606401610368565b505050565b6113c0611620565b600555565b60006064600354603c6113d89190611fa4565b6113e29190611d4e565b905090565b6113ef611620565b60405163a9059cbb60e01b81526001600160a01b0382811660048301526024820185905283169063a9059cbb906044016020604051808303816000875af115801561143e573d6000803e3d6000fd5b505050506040513d601f19601f82011682018060405250810190610fc09190611fbb565b336000908152600a6020526040902060048101544210156114bb5760405162461bcd60e51b8152602060048201526013602482015272596f752063616e277420636c61696d206e6f7760681b6044820152606401610368565b8054600254600654600091906114d19084611fa4565b6114db9190611d4e565b90506114ea4262278d00611d3b565b8360040160008282546114fd9190611d3b565b909155506000905061150f3383611782565b9050600181151514610fc05760405162461bcd60e51b8152602060048201526016602482015275596f7520636f756c646e277420636c61696d2066656560501b6044820152606401610368565b6000818152600d60209081526040808320600801805482518185028101850190935280835284938301828280156115bc57602002820191906000526020600020905b81546001600160a01b0316815260019091019060200180831161159e575b5050505050905060005b815181101561161857846001600160a01b03168282815181106115eb576115eb611fdd565b60200260200101516001600160a01b03160361160657600192505b8061161081611d70565b9150506115c6565b505092915050565b6007546001600160a01b031633146116665760405162461bcd60e51b81526020600482015260096024820152682737ba1030b236b4b760b91b6044820152606401610368565b565b6009546001600160a01b031633146116665760405162461bcd60e51b815260206004820152602e60248201527f4f6e6c7920696e737572616e636520636f6e74726163742063616e2063616c6c60448201526d103a3434b990333ab731ba34b7b760911b6064820152608401610368565b60006116e48261180b565b6008546040516323b872dd60e01b8152336004820152306024820152604481018490526001600160a01b03909116906323b872dd906064016020604051808303816000875af115801561173b573d6000803e3d6000fd5b505050506040513d601f19601f8201168201806040525081019061175f9190611fbb565b92915050565b60045460009061177883620f4240611fa4565b61175f9190611d4e565b600061178d8261180b565b60085460405163a9059cbb60e01b81526001600160a01b038581166004830152602482018590529091169063a9059cbb906044016020604051808303816000875af11580156117e0573d6000803e3d6000fd5b505050506040513d601f19601f820116820180604052508101906118049190611fbb565b9392505050565b6000811161185b5760405162461bcd60e51b815260206004820181905260248201527f416d6f756e74206d7573742062652067726561746572207468616e207a65726f6044820152606401610368565b50565b82805482825590600052602060002090810192821561189e5760005260206000209182015b8281111561189e578254825591600101919060010190611883565b506118aa9291506118ae565b5090565b5b808211156118aa57600081556001016118af565b6000602082840312156118d557600080fd5b5035919050565b6020808252825182820181905260009190848201906040850190845b8181101561194b57611938838551805182526020810151602083015260408101511515604083015260608101516060830152608081015160808301525050565b9284019260a092909201916001016118f8565b50909695505050505050565b80356001600160a01b038116811461196e57600080fd5b919050565b60006020828403121561198557600080fd5b61180482611957565b60a0810161175f8284805182526020810151602083015260408101511515604083015260608101516060830152608081015160808301525050565b6000815180845260005b818110156119ef576020818501810151868301820152016119d3565b506000602082860101526020601f19601f83011685010191505092915050565b600081518084526020808501945080840160005b83811015611a485781516001600160a01b031687529582019590820190600101611a23565b509495945050505050565b6000610160825184526020830151816020860152611a73828601826119c9565b91505060408301518482036040860152611a8d82826119c9565b91505060608301518482036060860152611aa782826119c9565b9150506080830151611ac460808601826001600160a01b03169052565b5060a0830151611adf60a08601826001600160a01b03169052565b5060c083015160c085015260e083015160e08501526101008084015185830382870152611b0c8382611a0f565b9250505061012080840151818601525061014080840151611b308287018215159052565b5090949350505050565b6000602080830181845280855180835260408601915060408160051b870101925083870160005b82811015611b8f57603f19888603018452611b7d858351611a53565b94509285019290850190600101611b61565b5092979650505050505050565b634e487b7160e01b600052604160045260246000fd5b600082601f830112611bc357600080fd5b813567ffffffffffffffff80821115611bde57611bde611b9c565b604051601f8301601f19908116603f01168101908282118183101715611c0657611c06611b9c565b81604052838152866020858801011115611c1f57600080fd5b836020870160208301376000602085830101528094505050505092915050565b60008060008060008060c08789031215611c5857600080fd5b86359550602087013567ffffffffffffffff80821115611c7757600080fd5b611c838a838b01611bb2565b96506040890135915080821115611c9957600080fd5b50611ca689828a01611bb2565b945050611cb560608801611957565b9250611cc360808801611957565b915060a087013590509295509295509295565b6020815260006118046020830184611a53565b600080600060608486031215611cfe57600080fd5b83359250611d0e60208501611957565b9150611d1c60408501611957565b90509250925092565b634e487b7160e01b600052601160045260246000fd5b8082018082111561175f5761175f611d25565b600082611d6b57634e487b7160e01b600052601260045260246000fd5b500490565b600060018201611d8257611d82611d25565b5060010190565b600181811c90821680611d9d57607f821691505b602082108103611dbd57634e487b7160e01b600052602260045260246000fd5b50919050565b601f8211156113b357600081815260208120601f850160051c81016020861015611dea5750805b601f850160051c820191505b8181101561046257828155600101611df6565b815167ffffffffffffffff811115611e2357611e23611b9c565b611e3781611e318454611d89565b84611dc3565b602080601f831160018114611e6c5760008415611e545750858301515b600019600386901b1c1916600185901b178555610462565b600085815260208120601f198616915b82811015611e9b57888601518255948401946001909101908401611e7c565b5085821015611eb95787850151600019600388901b60f8161c191681555b5050505050600190811b01905550565b818103611ed4575050565b611ede8254611d89565b67ffffffffffffffff811115611ef657611ef6611b9c565b611f0481611e318454611d89565b6000601f821160018114611f385760008315611f205750848201545b600019600385901b1c1916600184901b178455611f9d565b600085815260209020601f19841690600086815260209020845b83811015611f725782860154825560019586019590910190602001611f52565b5085831015611f905781850154600019600388901b60f8161c191681555b50505060018360011b0184555b5050505050565b808202811582820484141761175f5761175f611d25565b600060208284031215611fcd57600080fd5b8151801515811461180457600080fd5b634e487b7160e01b600052603260045260246000fdfea2646970667358221220d40c1531fb9e0dc39cb01bbbb8db8534d7f14830560607f357eda1ed0d818ea164736f6c63430008110033",
    "linkReferences": {}
  },
  "methodIdentifiers": {
    "claimGovernanceFee()": "fd480f1b",
    "claimRequiredVoting()": "d168da44",
    "depositGovernanceFee(uint256)": "2ceadfcc",
    "joinDAO(uint256)": "3fbdf32c",
    "joinDAOMaximum()": "94e98d01",
    "joinDAOMinimum()": "48e98438",
    "memberViewData(address)": "33441936",
    "memberWithdrawFunds()": "ce30a8cd",
    "requestCoverClaim(uint256,string,string,address,address,uint256)": "581187db",
    "riskAssessorWithdrawInsurance(uint256)": "59584a50",
    "setMaximumToJoinDAO(uint256)": "d003fc4e",
    "setMinimumToJoinDAO(uint256)": "170359ed",
    "totalDAOFund()": "55f3292c",
    "totalDAOMembers()": "c77dbf68",
    "totalVotingPower()": "671b3793",
    "userWithdrawInsurance(uint256)": "958610ff",
    "viewAllClaimRequests()": "49519845",
    "viewAllDAOMembers()": "30ad3234",
    "viewIndividualClaim(uint256)": "c60bb4f7",
    "vote(uint256)": "0121b93f",
    "withdrawCustomTokens(uint256,address,address)": "e482e725"
  },
  "id": 0
}